:020000040800F2
:1000000000040020C1010008E12C0008E12C0008D8
:10001000011F0008E12C0008E12C0008E12C000879
:10002000E12C0008E12C0008E12C0008814C0008BC
:10003000E12C0008E12C0008E12C0008D1B50008F3
:10004000E12C000851850008E1860008318700088E
:10005000E12C0008E12C000891820008E1820008F0
:100060003183000881830008D1830008E17400080F
:100070003175000881750008D175000821760008E7
:1000800071760008C1760008D17F0008D188000889
:1000900041890008F1890008A18A0008218400082C
:1000A000E12C0008E12C000881B00008E12C0008D8
:1000B00091B10008D1B1000811B2000861980008A0
:1000C000A1990008E12C0008E12C0008E12C0008AF
:1000D000E12C0008E12C0008E12C000891B6000892
:1000E000B1840008A1850008F1850008E12C000812
:1000F000E12C0008E12C0008E12C00081177000831
:10010000E12C0008318C000851B20008E12C0008F5
:10011000E12C0008E12C000841B00008E12C0008A7
:1001200061770008B177000801780008517800086D
:10013000A1780008E12C000841860008E12C0008A5
:10014000E12C0008E12C0008E12C000881AC00083B
:10015000F17800084179000891790008E12C000845
:10016000E12C0008E12C0008E12C0008E12C00083B
:1001700091860008E12C0008E1140008E12C000839
:10018000E12C0008E12C0008E12C0008E12C00081B
:10019000E12C0008E12C0008E12C0008E12C00080B
:1001A000E12C0008E12C0008E12C0008E12C0008FB
:1001B000E12C0008E12C0008E12C0008E12C0008EB
:1001C00072B62E4880F3098840F20000CCF200009D
:1001D0004EF63471CEF20001086040F20000C0F229
:1001E000F0004EF68851CEF2000108604FF000009A
:1001F000E1EE100A4EF63C71CEF2000108600620D6
:1002000080F31488BFF36F8F0BF08AFB4FF05530EB
:100210001B491C4A91423CBF41F8040BFAE71A49BA
:10022000164A91423CBF41F8040BFAE71749184AB5
:10023000184B9A423EBF51F8040B42F8040BF8E702
:1002400000201549154A91423CBF41F8040BFAE7DA
:1002500002F02EFD124C134DAC4203DA54F8041B8D
:100260008847F9E700F0D4FF0F4C104DAC4203DA99
:1002700054F8041B8847F9E702F02ABD0008002063
:10028000000000200004002000040020D804010821
:1002900000080020FC11002000120020482A002045
:1002A000C0010008C0010008C0010008C00100082A
:1002B0002DE9F04F2DED108AC1F80CD0D0F80CD0FC
:1002C000BDEC108ABDE8F08F02F04AFE03F038FE64
:1002D000002383F311882846A047002003F0D0FBB9
:1002E00003F016FE02F01CFE03F03AFA02F038FEAC
:1002F00003F026FE00DFFEE7000000000000000023
:1003000081F0004102E000BF83F0004330B54FEAC6
:1003100041044FEA430594EA050F08BF90EA020F33
:100320001FBF54EA000C55EA020C7FEA645C7FEAC6
:10033000655C00F0E2804FEA5454D4EB5555B8BFE9
:100340006D420CDD2C4480EA020281EA030382EA5A
:10035000000083EA010180EA020281EA0303362DEC
:1003600088BF30BD11F0004F4FEA01314FF4801CBF
:100370004CEA113102D0404261EB410113F0004FD1
:100380004FEA03334CEA133302D0524263EB430388
:1003900094EA050F00F0A780A4F10104D5F1200E26
:1003A0000DDB02FA0EFC22FA05F2801841F1000181
:1003B00003FA0EF2801843FA05F359410EE0A5F155
:1003C00020050EF1200E012A03FA0EFC28BF4CF086
:1003D000020C43FA05F3C01851EBE37101F000453C
:1003E00007D54FF0000EDCF1000C7EEB00006EEB49
:1003F0000101B1F5801F1BD3B1F5001F0CD34908D3
:100400005FEA30004FEA3C0C04F101044FEA445229
:1004100012F5800F80F09A80BCF1004F08BF5FEAB0
:10042000500C50F1000041EB045141EA050130BD90
:100430005FEA4C0C404141EB010111F4801FA4F133
:100440000104E9D191F0000F04BF01460020B1FA88
:1004500081F308BF2033A3F10B03B3F120020CDAC0
:100460000C3208DD02F1140CC2F10C0201FA0CF09E
:1004700021FA02F10CE002F11402D8BFC2F1200C03
:1004800001FA02F120FA0CFCDCBF41EA0C019040B9
:10049000E41AA2BF01EB0451294330BD6FEA040402
:1004A0001F3C1CDA0C340EDC04F11404C4F12002ED
:1004B00020FA04F001FA02F340EA030021FA04F3FF
:1004C00045EA030130BDC4F10C04C4F1200220FA56
:1004D00002F001FA04F340EA0300294630BD21FA94
:1004E00004F0294630BD94F0000F83F4801306BF5A
:1004F00081F480110134013D4EE77FEA645C18BF4E
:100500007FEA655C29D094EA050F08BF90EA020FE4
:1005100005D054EA000C04BF1946104630BD91EADC
:10052000030F1EBF0021002030BD5FEA545C05D1DF
:100530004000494128BF41F0004130BD14F580041E
:100540003CBF01F5801130BD01F0004545F0FE4192
:1005500041F470014FF0000030BD7FEA645C1ABFC7
:10056000194610467FEA655C1CBF0B46024650EAFE
:10057000013406BF52EA033591EA030F41F400212A
:1005800030BD00BF90F0000F04BF0021704730B5B0
:100590004FF4806404F132044FF000054FF0000185
:1005A00050E700BF90F0000F04BF0021704730B546
:1005B0004FF4806404F1320410F0004548BF40421B
:1005C0004FF000013EE700BF42004FEAE2014FEA70
:1005D00031014FEA02701FBF12F07F4393F07F4F4B
:1005E00081F06051704732F07F4208BF704793F04E
:1005F0007F4F04BF41F40021704730B54FF4607461
:1006000001F0004521F000411CE700BF50EA010263
:1006100008BF704730B54FF000050AE050EA01020C
:1006200008BF704730B511F0004502D5404261EB7C
:1006300041014FF4806404F132045FEA915C3FF4BD
:10064000D8AE4FF003025FEADC0C18BF03325FEA5A
:10065000DC0C18BF033202EBDC02C2F1200300FA0B
:1006600003FC20FA02F001FA03FE40EA0E0021FA30
:1006700002F11444BDE600BF0000000000000000CD
:1006800070B54FF0FF0C4CF4E06C1CEA11541DBF28
:100690001CEA135594EA0C0F95EA0C0F00F0DEF8F3
:1006A0002C4481EA030621EA4C5123EA4C5350EAD8
:1006B000013518BF52EA033541F4801143F4801329
:1006C00038D0A0FB02CE4FF00005E1FB02E506F0BA
:1006D0000042E0FB03E54FF00006E1FB03569CF00F
:1006E000000F18BF4EF0010EA4F1FF04B6F5007F15
:1006F00064F5407404D25FEA4E0E6D4146EB060687
:1007000042EAC62141EA55514FEAC52040EA5E500F
:100710004FEACE2EB4F1FD0C88BFBCF5E06F1ED8B9
:10072000BEF1004F08BF5FEA500E50F1000041EBF0
:10073000045170BD06F0004646EA010140EA02009D
:1007400081EA0301B4EB5C04C2BFD4EB0C0541EABF
:10075000045170BD41F480114FF0000E013C00F3D4
:10076000AB8014F1360FDEBF002001F0004170BDF8
:10077000C4F10004203C35DA0C341BDC04F1140411
:10078000C4F1200500FA05F320FA04F001FA05F29D
:1007900040EA020001F0004221F0004110EBD3706A
:1007A00021FA04F642EB06015EEA430E08BF20EA96
:1007B000D37070BDC4F10C04C4F1200500FA04F339
:1007C00020FA05F001FA04F240EA020001F00041CB
:1007D00010EBD37041F100015EEA430E08BF20EA3E
:1007E000D37070BDC4F1200500FA05F24EEA020E86
:1007F00020FA04F301FA05F243EA020321FA04F0B5
:1008000001F0004121FA04F220EA020000EBD3706B
:100810005EEA430E08BF20EAD37070BD94F0000F6B
:100820000FD101F00046400041EB010111F4801F9F
:1008300008BF013CF7D041EA060195F0000F18BF50
:10084000704703F00046520043EB030313F4801F8C
:1008500008BF013DF7D043EA0603704794EA0C0F46
:100860000CEA135518BF95EA0C0F0CD050EA41065C
:1008700018BF52EA4306D1D181EA030101F00041D9
:100880004FF0000070BD50EA410606BF1046194601
:1008900052EA430619D094EA0C0F02D150EA01360D
:1008A00013D195EA0C0F05D152EA03361CBF10464E
:1008B00019460AD181EA030101F0004141F0FE41ED
:1008C00041F470014FF0000070BD41F0FE4141F471
:1008D000780170BD70B54FF0FF0C4CF4E06C1CEA71
:1008E00011541DBF1CEA135594EA0C0F95EA0C0F26
:1008F00000F0A7F8A4EB050481EA030E52EA0335E1
:100900004FEA013100F088804FEA03334FF0805501
:1009100045EA131343EA12634FEA022245EA11152E
:1009200045EA10654FEA00260EF000419D4208BFDF
:10093000964244F1FD0404F5407402D25B084FEA8C
:100940003202B61A65EB03055B084FEA32024FF438
:1009500080104FF4002CB6EB020E75EB030E22BF95
:10096000B61A754640EA0C005B084FEA3202B6EB55
:10097000020E75EB030E22BFB61A754640EA5C0004
:100980005B084FEA3202B6EB020E75EB030E22BF94
:10099000B61A754640EA9C005B084FEA3202B6EB95
:1009A000020E75EB030E22BFB61A754640EADC0054
:1009B00055EA060E18D04FEA051545EA16754FEAB6
:1009C00006164FEAC30343EA52734FEAC2025FEAD4
:1009D0001C1CC0D111F4801F0BD141EA00014FF063
:1009E00000004FF0004CB6E711F4801F04BF014334
:1009F0000020B4F1FD0C88BFBCF5E06F3FF6AFAE50
:100A0000B5EB030C04BFB6EB020C5FEA500C50F1DF
:100A1000000041EB045170BD0EF0004E4EEA113162
:100A200014EB5C04C2BFD4EB0C0541EA045170BD69
:100A300041F480114FF0000E013C90E645EA060EAD
:100A40008DE60CEA135594EA0C0F08BF95EA0C0FDB
:100A50003FF43BAF94EA0C0F0AD150EA01347FF423
:100A600034AF95EA0C0F7FF425AF104619462CE7FA
:100A700095EA0C0F06D152EA03353FF4FDAE10465D
:100A8000194622E750EA410618BF52EA43067FF4AE
:100A9000C5AE50EA41047FF40DAF52EA43057FF43E
:100AA000EBAE12E7000000000000000000000000B4
:100AB0004FEA410212F5001215D211D56FF4787386
:100AC000B3EB625212D94FEAC12343F0004343EA29
:100AD000505311F0004F23FA02F018BF4042704704
:100AE0004FF00000704750EA013005D111F000408E
:100AF00008BF6FF0004070474FF00000704700BF24
:100B000053B94AB9002908BF00281CBF4FF0FF3174
:100B10004FF0FF3000F074B9ADF1080C6DE904CE70
:100B200000F006F8DDF804E0DDE9022304B07047C8
:100B30002DE9F047089E04468846002B4BD18A4297
:100B4000154667D9B2FA82F24AB1C2F1200701FA1A
:100B500002F320FA07F7954047EA030894404FEA6A
:100B6000154E230CB8FBFEF71FFA85FC0EFB178809
:100B700043EA084307FB0CF1994209D9EB1807F146
:100B8000FF3080F01B81994240F21881023F2B44D4
:100B90005B1AA4B2B3FBFEF00EFB103344EA03442D
:100BA00000FB0CFCA44509D92C1900F1FF3380F09F
:100BB0000781A44540F2048102382C4440EA0740F2
:100BC000A4EB0C0400271EB1D4400023C6E9004367
:100BD0003946BDE8F0878B4209D9002E00F0EB8042
:100BE0000027C6E9000138463946BDE8F087B3FA68
:100BF00083F7002F47D18B4202D3824200F2FA8062
:100C0000841A61EB030301209846002EE0D0C6E968
:100C10000048DDE702B9FFDEB2FA82F2002A40F0B6
:100C20008F80491B4FEA154E1FFA85F80127B1FB4B
:100C3000FEFC230C0EFB1C1143EA014308FB0CF1E4
:100C4000994207D9EB180CF1FF3002D2994200F219
:100C5000CD808446591AA3B2B1FBFEF00EFB1014EE
:100C600043EA044408FB00F8A04507D92C1900F119
:100C7000FF3302D2A04500F2B6801846A4EB080468
:100C800040EA0C409FE7C7F1200CBB4022FA0CFE63
:100C90004EEA030E01FA07F420FA0CF521FA0CF3E0
:100CA0004FEA1E482543B3FBF8F92C0C08FB193317
:100CB0001FFA8EFA44EA034309FB0AF49C4202FA43
:100CC00007F200FA07F10BD91EEB030309F1FF301D
:100CD00080F087809C4240F28480A9F1020973442D
:100CE0001B1BADB2B3FBF8F008FB103345EA03441D
:100CF00000FB0AFAA24508D91EEB040400F1FF33F9
:100D00006BD2A24569D90238744440EA0940A0FB7D
:100D10000289A4EB0A044C45C2464B4654D351D039
:100D2000002E69D0B1EB0A0564EB030404FA0CFC55
:100D3000FD40FC404CEA0505C6E90054002747E7A2
:100D4000C2F1200320FA03F7954001FA02F021FADC
:100D500003F34FEA154E3843010CB3FBFEF71FFABD
:100D600085F80EFB173341EA034107FB08F38B427A
:100D700004FA02F407D9691807F1FF3C2FD28B421D
:100D80002DD9023F2944CB1A81B2B3FBFEF00EFBF2
:100D9000103341EA034100FB08F38B4207D969187D
:100DA00000F1FF3C17D28B4215D902382944C91AE9
:100DB00040EA07473BE73746304609E70746E7E69C
:100DC0001846FBE64145ABD2B8EB020A69EB0E02CE
:100DD00001381346A4E76046E9E7184695E76746F9
:100DE000D1E781467CE702382C4447E7ACF1020C9E
:100DF0002B442FE7384608E73746E9E600000000B5
:100E0000704700BF0000000000000000000000006C
:100E1000844641EA000313F003036DD1403A41D305
:100E200051F8043B40F8043B51F8043B40F8043BC4
:100E300051F8043B40F8043B51F8043B40F8043BB4
:100E400051F8043B40F8043B51F8043B40F8043BA4
:100E500051F8043B40F8043B51F8043B40F8043B94
:100E600051F8043B40F8043B51F8043B40F8043B84
:100E700051F8043B40F8043B51F8043B40F8043B74
:100E800051F8043B40F8043B51F8043B40F8043B64
:100E900051F8043B40F8043B51F8043B40F8043B54
:100EA000403ABDD2303211D351F8043B40F8043BF4
:100EB00051F8043B40F8043B51F8043B40F8043B34
:100EC00051F8043B40F8043B103AEDD20C3205D304
:100ED00051F8043B40F8043B043AF9D2043208D0FC
:100EE000D2071CBF11F8013B00F8013B01D30B886E
:100EF00003806046704700BF082A13D38B078DD04C
:100F000010F003038AD0C3F10403D21ADB071CBF1D
:100F100011F8013B00F8013B80D331F8023B20F887
:100F2000023B7BE7043AD9D3013A11F8013B00F8C0
:100F3000013BF9D20B7803704B7843708B78837048
:100F40006046704700000000000000000000000044
:100F500090F800F06DE9024520F007016FF0000CF9
:100F600010F0070491F820F040F049804FF00004A1
:100F70006FF00700D1E9002391F840F000F108007C
:100F800082FA4CF2A4FA8CF283FA4CF3A2FA8CF3B4
:100F90004BBBD1E9022382FA4CF200F10800A4FA1B
:100FA0008CF283FA4CF3A2FA8CF3E3B9D1E904236F
:100FB00082FA4CF200F10800A4FA8CF283FA4CF3A6
:100FC000A2FA8CF37BB9D1E9062301F1200182FA60
:100FD0004CF200F10800A4FA8CF283FA4CF3A2FA66
:100FE0008CF3002BC6D0002A04BF04301A4612BA74
:100FF000B2FA82F2FDE8024500EBD2007047D1E977
:10100000002304F00305C4F100004FEAC50514F005
:10101000040F91F840F00CFA05F562EA05021CBFD6
:1010200063EA050362464FF00004A9E700000000F0
:1010300001F0FF01102A2BDB10F0070F08D010F889
:10104000013B013A8B422DD010F0070F42B3F6D18D
:10105000F0B441EA012141EA014122F007047FF0A6
:1010600000070023F0E80256083C85EA010586EAFD
:10107000010685FA47F5A3FA87F586FA47F6A5FA39
:1010800087F68EB9EED1F0BC01F0FF0102F0070245
:1010900032B110F8013B013A83EA010313B1F8D1F0
:1010A0000020704701387047002D06BF35460338D1
:1010B000073815F0010F07D1013015F4807F02BF0A
:1010C000013015F4C03F0130F0BC0138704700BF5B
:1010D0004FF0FF3C06E000BF4FF0010C02E000BF04
:1010E0004FF0010C4DF804CD4FEA410C7FEA6C5CE7
:1010F0004FEA430C18BF7FEA6C5C1BD001B050EA8A
:10110000410C0CBF52EA430C91EA030F02BF90EA74
:10111000020F0020704710F1000F91EA030F58BF33
:10112000994208BF90422CBFD8176FEAE37040F095
:10113000010070474FEA410C7FEA6C5C02D150EA33
:10114000013C07D14FEA430C7FEA6C5CD6D152EAEE
:10115000033CD3D05DF8040B704700BF84461046B3
:1011600062468C461946634600E000BF01B5FFF7B2
:10117000B7FF002848BF10F1000F01BD4DF808ED82
:10118000FFF7F4FF0CBF012000205DF808FB00BF53
:101190004DF808EDFFF7EAFF34BF012000205DF8AD
:1011A00008FB00BF4DF808EDFFF7E0FF94BF0120FA
:1011B00000205DF808FB00BF4DF808EDFFF7CEFFFB
:1011C00094BF012000205DF808FB00BF4DF808ED3A
:1011D000FFF7C4FF34BF012000205DF808FB00BF0B
:1011E0004FEA410C7FEA6C5C02D150EA013C0AD123
:1011F0004FEA430C7FEA6C5C02D152EA033C02D115
:101200004FF0000070474FF00100704700000000F1
:1012100000B5124B83B01B68019303F091FD01F000
:1012200077FD00F015FE0E490E4805F0A9F801F013
:10123000AFFB00F005FA00F0DBFC01F0E1F80A4A30
:101240000A490B4801F084FC01F0CAFA00F000F9E9
:101250004FF47A7002F09CFBFAE700BF0008002010
:10126000200800209C290020040800200C080020F1
:10127000001200200000000000000000000000003C
:1012800000B5084B83B01A680192019A1B689A4214
:1012900005D1054803B05DF804EB01F0A1BDFFF7EF
:1012A000EFFF00BF0008002080F3000800000000EE
:1012B00000B570EE600ADFED357A354BB0EEE06ACE
:1012C00083B0B4EEE76A1A680192F1EE10FA4FD4D7
:1012D00030499FED317AD1ED007A304A70EEA77A2D
:1012E000D2ED006AF4EEC77AF1EE10FA34DD81ED4A
:1012F000007AB2EE047A70EEE67ADFED296AF4EE57
:10130000E67AF1EE10FA35DCDFED266AF4EE667A65
:10131000F1EE10FA48BFF0EE667ADFED236AC2ED17
:10132000000AB4EEE66AF1EE10FACABFDFED1F6AFA
:10133000DFED1F6A67EEA67AE0EEA67A77EE877A8F
:10134000FDEEE77A17EE902A10B2019A1B689A42D6
:101350001AD103B05DF804FB9FED167AF4EEC77A5C
:10136000F1EE10FA09D581ED007ABAEE047AC2E7FF
:101370000020EAE7F0EE667ACFE79FED0F7AC1ED45
:10138000007A27EE877AB6E7FFF77AFF0000C842B7
:1013900000080020101200200000FA440C12002067
:1013A00000007A4300007AC300009643CDCCCC3DC8
:1013B000CDCC4C3F0000FAC40AD7A33B000000008C
:1013C000F0B52DED028B1D4C1D4BA2691D491B680C
:1013D0001D4F9FED1E8A916183B02026019386F3F5
:1013E000118802F095FD01F09BFDA36A01F0B8FDA4
:1013F00002F0A6FD2368A34207D0A2699B68926809
:101400009A4202D2384601F0EBFC002383F31188A4
:10141000022001F035FA07EE900AF0EE480AB8EE25
:10142000E70AFFF745FF054600F52F7000F0D0FFF3
:10143000C5F52F7000F0B4FFD1E700BF781B002086
:1014400000080020A0F30008B0F300080000964355
:1014500010B50A4C0A4B22680A4884B04FF41E713A
:10146000039200220092402202F03AFA039A236883
:101470009A4201D104B010BDFFF702FF000800201E
:10148000C113000818120020000000000000000036
:1014900030B5104D81682B680F4A83B001930B68FB
:1014A00023F001030B608168946A03E0936A1B1BBD
:1014B000C72B09D8086810F00100F7D1019A2B68F2
:1014C0009A4204D103B030BD4FF0FF30F6E7FFF78A
:1014D000D7FE00BF00080020781B0020000000009D
:1014E000F0B5284D83B02B68019302F0D9FC01F0D0
:1014F00097FD254B1E69F20715D55A69234C42F01A
:1015000001025A612778BB1F012B2AD90522636883
:1015100022701B680BB120469847042F27D0022F5A
:1015200025D003232370B30710D5174A174C5369EE
:1015300043F0020353612378032B1DD063689B683B
:101540000622227013B101211048984701F090FD46
:10155000019A2B689A4213D103B0BDE8F04003F022
:10156000AFBB019A2B689A420AD103B0F0BD0223A7
:101570002370B307EAD5D8E72046FFF789FFDDE7F8
:10158000FFF77EFE000800200000055090140020A8
:1015900030B50B4D0B4C2B6883B02046019300F007
:1015A00037F8019A2B680848084D094921619A4289
:1015B000C4E9025001D103B030BDFFF761FE00BFA6
:1015C00000080020901400203CFF00080000055097
:1015D000165502020000000000000000000000009C
:1015E00000B5074B83B01A680192019A1B689A42B2
:1015F00004D103B05DF804EBFFF7CABFFFF740FE6C
:1016000000080020000000000000000000000000B2
:1016100000B5084B83B01A68019201220270019A4A
:101620001B6800219A42416002D103B05DF804FBBF
:10163000FFF726FE00080020000000000000000068
:1016400030B50E4D0E4C2B6883B00193FFF7C8FFE9
:10165000206808B10AF0C4F94FF496400AF0B8F9CE
:1016600001992A682060B0FA80F35B099142C3F1C6
:10167000000001D103B030BDFFF702FE00080020DA
:10168000A414002000000000000000000000000082
:1016900070B5274D82B02B680193064601220321C5
:1016A0006E2000F02DFB044630B1019A2B689A425F
:1016B00020463AD102B070BD32464E216E2000F075
:1016C0001FFB04460028F0D1442E07D00246B72164
:1016D0006E2000F015FBB8B10446E6E70122B72101
:1016E0006E2000F00DFB0028F6D1224603216E206B
:1016F00000F006FB0028EFD1032211216E2000F03C
:10170000FFFA78B10446D0E7224603216E2000F0AC
:10171000F7FA0028E0D10A2211216E2000F0F0FA39
:101720000028D9D1034B1E71BFE7FFF7A9FD00BF09
:1017300000080020A81400200000000000000000A5
:101740002DE9F04F8FB0DFF80084DDF860C0D8F8E5
:1017500000400D940CF1FF355C1EB3F5207F9DF821
:1017600064909DF868B00C44154400F21282BCF5F8
:10177000F07F00F20E82B1F5207F0E4600F2128259
:10178000B2F5F07F174600F21082A14280F0048289
:10179000B4F5207F00F20082AA4280F00082B5F505
:1017A000F07F00F2FC81B9F1400F824600F0B08179
:1017B000B9F1800F23D0B9F1200F00F09C810023F4
:1017C000CDE90033BBF1400F2FD0BBF1800F00F00B
:1017D000CB81BBF1200F00F0B9810023CDE90233AA
:1017E000002203216E2000F08BFAA0B30D9AD8F8E6
:1017F00000309A4240F0E2810FB0BDE8F08F9A07C6
:1018000040F0D681CC4A8C085900661CA2FB01012D
:10181000A2FB030204EB930406EBD2030093BBF19B
:10182000400F06EBD1030193CFD11CF0010F40F024
:10183000C281C14B7D084FEA4C026F1CA3FB021210
:10184000A3FB0C1307EB9303029307EB920305EB47
:101850005C050393C4E702465B216E2000F050FA5A
:101860000028C3D15046FFF713FF0028BED102461F
:1018700003216E2000F044FA0028B7D1C6F30723F5
:101880001A4608216E20049300F03AFA0028ADD1E0
:10189000F3B21A4609216E20059300F031FA0028B0
:1018A000A4D1C7F307231A460A216E20069300F03D
:1018B00027FA00289AD1FBB21A460B216E20079313
:1018C00000F01EFA002891D1C4F307231A460C2118
:1018D0006E20089300F014FA002887D1E3B21A466C
:1018E0000D216E20099300F00BFA00287FF47EAFE3
:1018F000C5F307231A460E216E200A9300F000FA62
:1019000000287FF473AFEBB21A460F216E200B93C1
:1019100000F0F6F900287FF469AF049A35216E20B3
:1019200000F0EEF900287FF461AF059A36216E20B1
:1019300000F0E6F900287FF459AF089A37216E20AD
:1019400000F0DEF900287FF451AF099A38216E20AB
:1019500000F0D6F900287FF449AF069A39216E20AD
:1019600000F0CEF900287FF441AF079A3A216E20AB
:1019700000F0C6F900287FF439AF0A9A3B216E20A7
:1019800000F0BEF900287FF431AF0B9A3C216E20A5
:1019900000F0B6F900287FF429AF009B3D21C3F386
:1019A00007226E2000F0ACF900287FF41FAF9DF8ED
:1019B00000203E216E2000F0A3F900287FF416AF2E
:1019C000019B3F21C3F307226E2000F099F9002804
:1019D0007FF40CAF9DF8042040216E2000F090F9B8
:1019E00000287FF403AF029B4121C3F307226E203E
:1019F00000F086F900287FF4F9AE9DF80820422116
:101A00006E2000F07DF900287FF4F0AE039B4321A7
:101A1000C3F307226E2000F073F900287FF4E6AECE
:101A20009DF80C2044216E2000F06AF900287FF414
:101A3000DDAE012203216E2000F062F900287FF460
:101A4000D5AE4A4693216E2000F05AF900287FF463
:101A5000CDAE5A4694216E2000F052F900287FF452
:101A6000C5AE012203216E2000F04AF900287FF460
:101A7000BDAE0134A31B07EE103ADFED307AB8EEAD
:101A8000477ABAF1440F77EEC77A00F09980B0EE4A
:101A9000006AF2EE006AE7EE066A77EEA77AB0EE29
:101AA000667A67EE877ADFED266A87EEA67AFCEE25
:101AB000C77ACDED007A009B9521C3F307226E20F3
:101AC00000F01EF900287FF491AE9DF800209621C9
:101AD0006E2000F015F900287FF488AE194B01350F
:101AE000EF1BA41B5F801C8083F804A083F8059083
:101AF00083F806B07AE610495A00A1FB030306EB0F
:101B00005303A1FB0212009306EB5203019359E623
:101B1000D9074DD4084A74085900661CA2FB01017C
:101B2000A2FB030204EB530406EB9203009306EBC3
:101B30009103019346E600BFABAAAAAA0000224483
:101B40000000A344A814002000080020244A4FEA03
:101B50004C03A2FB0C1CA2FB032307EB530307EB74
:101B60005C02029203933BE61CF0030F23D11C4B53
:101B7000BD084FEA4C026F1CA3FB0212A3FB0C131F
:101B800007EBD303029307EBD20305EB9C0503930A
:101B900026E66FF0070029E66FF0030026E66FF0F7
:101BA000040023E66FF0010020E66FF002001DE65E
:101BB0006FF005001AE66FF0060017E6FFF760FB0E
:101BC000F2EE006A37EE267ADFED066A67EE277AD4
:101BD00087EEA67AFCEEC77ACDED007A6BE700BF00
:101BE000ABAAAAAA000024440000000000000000E4
:101BF00010B5114C86B02368059300F061F80F49C9
:101C00000F4803F055FD012200210D4803F0E8FDC7
:101C100020237822CDE901330092A023B422F021C1
:101C20000220FFF78DFD059A23689A4201D106B084
:101C300010BDFFF725FB00BF00080020C0F300081F
:101C400080290020000000000000000000000000CB
:101C500070B5164E16483368154D82B005224FF404
:101C60008071019307F01CFD20246B6983F480735D
:101C70006B61012001F08CFE631E13F0FF04F4D1B0
:101C80004FF4807140F206222983094807F008FDCD
:101C9000019A33689A4206D10649074802B0BDE866
:101CA000704003F04DBBFFF7EBFA00BF00080020C7
:101CB0000004024000F40008F825002000000000A5
:101CC00000B50C4A0C4B1278196883B0012A0191B7
:101CD000019A1B6804D09A4209D103B05DF804FB55
:101CE0009A4204D103B05DF804EBFFF7B1BFFFF7F0
:101CF000C7FA00BFF82500200008002000000000FF
:101D0000F0B5214C214E89B0336807930746002572
:101D100020468DF818108DF819208DF8145003F016
:101D200027FC2378012B0CD0042205AB01950292ED
:101D300000933946022306AA204603F0A9FB054674
:101D400048B9114803F034FC0020079A33689A42DE
:101D500017D109B0F0BD204603F082FB23780C4A6E
:101D6000052B106004D0084803F022FC68B2ECE7B1
:101D7000204603F02DFB2378012BF4D1FFF768FFF9
:101D8000F1E7FFF77DFA00BFF825002000080020EA
:101D9000B01400200000000000000000000000005F
:101DA0002DE9F043254E83B034680194042A9DF850
:101DB0002890144605460F46984639D9B9F1000FC8
:101DC00014BF00224FF08052640002EB0863013C14
:101DD0001C4405F00F0527F01F07202383F311880B
:101DE00002F096F83D4301F09BF8154B1035DD608D
:101DF0001C6101F0B5F802F0A3F8124B1A689A4280
:101E000004D0996993688A689A420DD3002383F3BA
:101E10001188BFF36F8FBFF34F8F019A33689A42D7
:101E20000AD103B0BDE8F083074800F0D9FFEDE721
:101E3000064800F0D5FFC1E7FFF722FA00080020AE
:101E400090ED00E0781B002090F4000870F400088A
:101E500030B5224D224C2B68224A85B0039363682B
:101E600043F004036360536A43F4803353622023D6
:101E700083F3118802F04CF801F052F817221A4B44
:101E8000E260236101F06CF802F05AF8174B1A680F
:101E90009A4204D0996993688A689A4218D30020BC
:101EA00080F31188BFF36F8FBFF34F8F03231D2281
:101EB00000904FF00051FFF773FF094A536843F059
:101EC00001035360039A2B689A4205D105B030BDD7
:101ED000074800F085FFE2E7FFF7D2F9000800208D
:101EE00090ED00E000ED00E009000010781B0020FC
:101EF00090F4000800000000000000000000000056
:101F000070B51A4D1A4C1B4E0FCD0FC49EB02A68E7
:101F1000336822801D93EFF30981682203A8FEF73E
:101F200077FF154B9D6AAA0714D4EB0708D5124B0F
:101F300008995B6B114A00910D4880210AF068F8FE
:101F40001D9A33689A420FD109481EB0BDE870400F
:101F500000F046BF099A5B6B0092A4F11000084A9A
:101F600080210AF055F8E0E7FFF78AF954F40008F9
:101F7000B41400200008002000ED00E030F4000858
:101F800010F4000800000000000000000000000045
:101F900000B51F4B0278196883B00191E2B11D4A68
:101FA0004FF4005111834278EAB11A4A4FF480513C
:101FB00011838278F2B1174A4FF480411183C278BD
:101FC000FAB9144A4FF400415183019A1B689A42AE
:101FD0001CD103B05DF804FB0E4A4FF4005151834D
:101FE0004278002AE1D10B4A4FF480515183827824
:101FF000002AE0D1074A4FF480415183C278002A79
:10200000DFD0044A4FF400411183DEE7FFF738F9CF
:102010000008002000100240000000000000000046
:1020200000B51F4B0278196883B00191E2B11D4AD7
:102030004FF4007111834278EAB11A4A4FF480716B
:1020400011838278F2B1174A4FF400611183C2788C
:10205000FAB9144A4FF480615183019A1B689A427D
:102060001CD103B05DF804FB0E4A4FF4007151839C
:102070004278002AE1D10B4A4FF480715183827873
:10208000002AE0D1074A4FF400615183C278002A48
:10209000DFD0044A4FF480611183DEE7FFF7F0F8E8
:1020A00000080020001002400000000000000000B6
:1020B00030B50C4A0C4B116883B04FF400550191B8
:1020C0004FF480544FF400414FF480405D835C83B3
:1020D0005883598301991368994201D103B030BDE7
:1020E000FFF7CEF8000800200010024000000000BA
:1020F00030B50C4A0C4B116883B04FF40075019158
:102100004FF480744FF480614FF400605D835C8312
:102110005883598301991368994201D103B030BDA6
:10212000FFF7AEF800080020001002400000000099
:1021300010B50B4C0B48236882B099220021019303
:1021400003F04EFB019A23689A4206D1054800210C
:1021500002B0BDE8104003F02BBCFFF791F800BFC0
:1021600000080020482900200000000000000000B6
:1021700010B50B4C0B48236882B0992200210193C3
:1021800003F02EFB019A23689A4206D105480021EC
:1021900002B0BDE8104003F00BBCFFF771F800BFC0
:1021A000000800206429002000000000000000005A
:1021B00000B5084B83B01A680192019A1B689A42D5
:1021C00006D10548002103B05DF804EB03F058BBCD
:1021D000FFF756F800080020482900200000000002
:1021E00000B5084B83B01A680192019A1B689A42A5
:1021F00006D10548002103B05DF804EB03F040BBB5
:10220000FFF73EF8000800206429002000000000CD
:1022100070B51A4C1A4E2378326882B0022B0192A4
:10222000A26811D165781748013505F0070500EB64
:102230008500904763686570013B6360019A33686D
:102240009A4219D102B070BD012B08D001993368B0
:10225000994211D10C4802B0BDE870401047657832
:102260000848013D05F0070500EB850090476368CD
:10227000657001336360E1E7FFF702F84C15002059
:102280000008002030F5000820F5000800000000DC
:1022900070B51A4C1A4E2378326882B0012B019225
:1022A000A26811D165781748013505F0070500EBE4
:1022B000850090476368657001336360019A3368F5
:1022C0009A4219D102B070BD022B08D0019933682F
:1022D000994211D10C4802B0BDE8704010476578B2
:1022E0000848013D05F0070500EB8500904763684D
:1022F0006570013B6360E1E7FEF7C2FF3415002023
:102300000008002030F5000820F50008000000005B
:1023100030B51F4D85B02B68039340F24C43994272
:10232000044626DCA3F69803994211DB4B00002BF0
:1023300029D10370036998474FF47A71039A2B6887
:102340009A421ED1606905B0BDE8304003F000BA82
:10235000104B02225B42227040F2892293420E49C6
:1023600091FBF3F189B207DC0191E3689847019989
:10237000E4E7012303702D21019123699847019916
:10238000DCE7FEF77DFFE4DD01220270E4E700BF39
:102390000008002068F7FFFFA08601000000000091
:1023A00000B5084B83B01A680192019A1B689A42E3
:1023B00006D10146044803B05DF804EBFFF7A8BF5F
:1023C000FEF75EFF0008002034150020000000002A
:1023D00000B5084B83B01A680192019A1B689A42B3
:1023E00006D10146044803B05DF804EBFFF790BF47
:1023F000FEF746FF000800204C15002000000000FA
:1024000070B51D4E1D4A1E4B30681E491E4C916012
:1024100082B00021D46001901C4C1D481D4D9D6070
:10242000117051705160106154611B481B4A1C4D62
:10243000D8601C48197059705960C3E90425FFF72A
:10244000A7FD1848FFF7ECFD1749204603F030F9C7
:10245000204603F065FA2846144903F029F9019A49
:1024600033689A4205D1284602B0BDE8704003F0B7
:1024700057BAFEF705FF00BF000800204C150020EA
:1024800034150020911F0008312100084829002040
:10249000B12100082120000871210008E121000875
:1024A0006429002020F50008E0F40008A0F40008EA
:1024B0000A490B4B09680B4A82B020200191402148
:1024C00058834FF4806559834FF400644FF4804083
:1024D00004215D835C8358835183FEE7000800205C
:1024E000000C024000040240000000000000000058
:1024F00010B51E491E4A0B78106882B0013B01904E
:10250000072B0AD8DFE803F012151C1F26290F0439
:1025100018480824012304830B7001991368994219
:1025200021D102B010BD08230B70F6E702230B7017
:10253000F3E711484FF48054032304830B70ECE756
:1025400004230B70E9E70C484FF48044052304830F
:102550000B70E2E706230B70DFE70648042407232D
:1025600004830B70D9E7FEF78BFE00BFE018002054
:10257000000800200010024000040240000000009B
:1025800030B50C4B0C4918680C4A83B04FF48045A9
:1025900001904FF480504883042408204D835483D5
:1025A0005083019A1B689A4201D103B030BDFEF7F7
:1025B00067FE00BF00080020000402400010024037
:1025C0002DE9F04F4E4B4F4A9B694F499961A5B099
:1025D00007AE05AD80231768009331462A460024D4
:1025E0000CA84A4B2397CDE90766CDE90555CDE9FF
:1025F00009440B9400F0C4FA0CA9454A4548434CE1
:10260000454DDFF83481DFF834B1DFF834A100F054
:10261000DFFA04F11C0604F16007A146504601F000
:1026200017FD2A682B69226063602A6A2B6BA260FF
:10263000E3606A686B69226163616A6A6B6BA261BD
:10264000E361AA68AB6922626362AA6AAB6BA262A9
:10265000E362EA68EB6922636363EA6AEB6B2F4922
:10266000A263E36351F8043F0A6AB142A3EB020399
:102670000B64F7D1802249460CA800F0D9FA98F8EB
:102680000030002BCAD09BF8003033B3012BC5D1EA
:10269000DFF8B0C02248614650F8042B51F8043FDF
:1026A000B84213440B60F7D11E4A13780133DBB2F2
:1026B000642B1370B2D11C495CF8043F1B4A82FBA7
:1026C0000302DB17C3EB621341F8043B184B9C4534
:1026D000F2D1002388F80030A0E7194620221248E2
:1026E000039309F045FC039B12481946202209F088
:1026F0003FFC0C49039B0B7001228BF800208DE7F7
:10270000781B00200008002050F50008E815002084
:1027100090F500080012002084150020E415002028
:1027200028160020C5150020481600201F85EB51F3
:10273000E4150020C8150020C4150020C61500208F
:102740002C080020C415002000000000000000003C
:1027500070B502691E4D52882B6882B006460C4641
:102760001C4801939200002109F002FC33695B8848
:102770005BB1184AA11E002331F8020F42F8040B86
:102780003069408801339842F6D8202383F31188BA
:1027900001F0EEFB00F004FC00F092FC0E488368B0
:1027A000002B0FDD00F01CFC01F0FAFB002383F38B
:1027B0001188019A2B68094901209A42087004D1B6
:1027C00002B070BD01F07CFCECE7FEF759FD00BFE4
:1027D00000080020841500202C080020E0180020AC
:1027E00070B51F4D1F4C2E78236884B0012E0393C3
:1027F00005D0039A23689A422FD104B070BD0021FE
:10280000284602F0B5FB284602F072FC3346284603
:10281000154A164902F02CFC1549164802F048FFEB
:102820004FF496720021134802F0DAFF002111489C
:1028300003F0BEF80F4803F073F831464FF482728C
:102840000C4802F0CDFF0023009340220A4B0B48B6
:102850004FF41E7101F044F8CBE7FEF711FD00BF05
:10286000D4220020000800206415002060F5000834
:10287000A0F500082C290020C125000868160020BA
:1028800010B50E4A82B013680193072811D80C497D
:1028900000F1180300F1100451F8233051F824001E
:1028A000C01A20EAE07001991368994203D102B07E
:1028B00010BD0020F7E7FEF7E3FC00BF0008002092
:1028C000E8150020000000000000000000000000EB
:1028D00000B50F4B83B01868019002290CD0032972
:1028E0000CD001290B4818BF0020019A1B689A429E
:1028F0000BD103B05DF804FB0748F6E7032A96BF47
:102900000648002000EBC200EFE7FEF7B9FC00BF6D
:1029100000080020C0F6000860F6000870F7000804
:1029200070B5154C82B02368019302291CD10D4665
:102930000646202383F3118801F01AFB00F030FBD8
:1029400030460E4A012104F0BBF929460C4A3046B4
:1029500004F0B6F90B4803F0B3FF00F041FB01F0BF
:102960001FFB002383F31188019A23689A4201D147
:1029700002B070BDFEF784FC00080020E0F50008FE
:1029800010F60008E418002000000000000000001D
:1029900030B5134D134C2B68134883B0019303F0EB
:1029A00007FF1249104803F033FF226D936B23F4A5
:1029B000002393634FF47A7000F0EAFF20460C493D
:1029C00004F02EF9226D936B43F400239363019A74
:1029D0002B689A4201D103B030BDFEF751FC00BF15
:1029E0000008002038260020E418002040F60008E7
:1029F00050F6000800000000000000000000000089
:102A000000B5084B83B01A680192019A1B689A427C
:102A100005D1054803B05DF804EB01F079BCFEF781
:102A20002FFC00BF00080020380800200000000034
:102A300000B5084B83B01A680192019A1B689A424C
:102A400005D1054803B05DF804EB01F099BCFEF731
:102A500017FC00BF0008002038080020000000001C
:102A600070B50D4C82B0236801930D1E06460DDD36
:102A7000284602F09DF818B90C2333604FF0FF3060
:102A8000019A23689A4205D102B070BD034800F054
:102A9000A7F9EDE7FEF7F4FB0008002090F7000827
:102AA00000B5064B83B01A680192019A1B689A42DE
:102AB00002D103B05DF804FBFEF7E2FB0008002042
:102AC00000B5074B83B01A680192019A1B689A42BD
:102AD00004D103B05DF804EB01F01ABCFEF7D0FBA3
:102AE00000080020000000000000000000000000BE
:102AF00000B5074B83B01A680192019A1B689A428D
:102B000004D103B05DF804EB01F03ABCFEF7B8FB6A
:102B1000000800200000000000000000000000008D
:102B200000B5074B83B01A680192019A1B689A425C
:102B300004D103B05DF804EB01F0D2BCFEF7A0FBBA
:102B4000000800200000000000000000000000005D
:102B500010B5084B82B01C68019400240460019CED
:102B60001B689C42C0E9011201D102B010BDFEF702
:102B700087FB00BF000800200000000000000000EC
:102B80002DE9F0430E4D83B02C680194044699461C
:102B90000F46164610304C220021DDF8288009F03F
:102BA000E7F9C4F80090019A2B68E6609A42C4E9FC
:102BB000018702D103B0BDE8F083FEF761FB00BFDF
:102BC00000080020000000000000000000000000DD
:102BD000F0B5144E83B001F110031746326801922C
:102BE0000446412218460D46002109F0C1F9394634
:102BF000402209F055FA6068FFF762FF236803B1CD
:102C0000AB652560A068FFF78BFF019A33689A4295
:102C100005D1606803B0BDE8F040FFF769BFFEF77B
:102C20002FFB00BF00080020000000000000000093
:102C3000F0B51C4E436883B005469342306801905E
:102C400006D20020019A33689A4229D103B0F0BD20
:102C500014460F46A868FFF733FF22463946286816
:102C6000FEF7D6F8012385F85130E868FFF758FFE2
:102C70006C6D84B123681868FFF722FF23689D609C
:102C800023685868FFF74CFF23681868FFF730FF88
:102C90006468002CEED1A868FFF72AFF0120D1E775
:102CA000FEF7EEFA0008002000000000000000001F
:102CB00000B5064B83B01A680192019A1B689A42CC
:102CC00002D103B05DF804FBFEF7DAFA0008002039
:102CD000024B82B01B680193FEE700BF0008002092
:102CE00000B5044B04481B6883B0019300F078F8EA
:102CF000FEE700BF00080020A0F700080000000069
:102D0000024B82B01B680193FEE700BF0008002061
:102D1000F0B5294E294B3268294885B0002403922A
:102D20009C60D968274A4FF6FF0529400A43DA60BC
:102D3000C2682549254D42F08072C2600A6842F09F
:102D400001020A6010202022D87783F8222000F0A8
:102D5000DFFA00F045FA01F02BF801F001FF01F075
:102D60006FFF01F07DF800F0FBF9402105F5886068
:102D700000F01EFD0127164BC36180F82070A8618A
:102D800000F0A6F884F3118862B6AB69114A9A6123
:102D90004FF4C4713A46104B009405F59D6000F065
:102DA0009FFD039A33680D4981619A4201D105B0B4
:102DB000F0BDFEF765FA00BF0008002000ED00E05E
:102DC000F0ED00E00003FA05001000E0781B0020A1
:102DD0000004002040F90008012D0008C0F7000899
:102DE00000B5054B83B01B680193044672B6FFF72C
:102DF0005FFB024BDC62FEE700080020781B00202E
:102E00002DE9F047DFF890A0224DDAF8003082B0CB
:102E1000019300F055F9AB6993F8232012B1013A00
:102E200083F823205A6ADFF8748001325A6200F076
:102E300047F9AB6AEA6901334245AB6220D0936837
:102E4000013B9360EC69A668D6B94FF0200923686E
:102E5000E768E660C3F804802368EB6100F0C0F81F
:102E600001F09EF886F311882069B84789F311882C
:102E700001F07EF800F094F8EC69A368002BE6D02E
:102E8000019ADAF800309A4202D102B0BDE8F08728
:102E9000FEF7F6F9781B002000080020941B0020A4
:102EA00010B5094C094A236882B0019351685368F0
:102EB0005B1A9842FBD8019A23689A4201D102B06A
:102EC00010BDFEF7DDF900BF00080020001000E093
:102ED00000B50E4A0E4B116B186883B0019009B90A
:102EE000526B4AB1019A1B689A420CD1094803B04F
:102EF0005DF804EBFFF774BF019A1B689A4202D198
:102F000003B05DF804FBFEF7BBF900BF781B00209F
:102F100000080020D0F700080000000000000000BA
:102F200030B50B4C0B4D236B2A6883B001920BB963
:102F3000636B13B10848FFF753FF019A2B68012117
:102F40009A42616301D103B030BDFEF799F900BF29
:102F5000781B00200008002000F800080000000096
:102F600030B50C4C0C4D236B2A6883B0019253B9D9
:102F7000636B002B07DD019A2B6800219A42616385
:102F800005D103B030BD0548FFF72AFFF3E7FEF790
:102F900077F900BF781B00200008002020F8000807
:102FA00030B50B4C0B4D236B2A6883B0002B01927C
:102FB00001DD636B13B10848FFF712FF019A2B681C
:102FC00001219A42616301D103B030BDFEF758F987
:102FD000781B00200008002010F800080000000006
:102FE00030B50C4C0C4D236B2A6883B0002B01923A
:102FF0000ADD636B002B07DD019A2B6800219A42E2
:10300000616305D103B030BD0448FFF7E9FEF3E783
:10301000FEF736F9781B00200008002030F8000881
:1030200030B50F4D83B02B680193202383F31188B3
:103030000C4C236B002B01DB626B1AB10A48FFF7C3
:10304000CFFE236B01332363002383F31188019A9E
:103050002B689A4201D103B030BDFEF711F900BFD1
:1030600000080020781B0020E0F7000800000000A6
:1030700030B50F4D83B02B680193202383F3118863
:103080000C4C236B002B01DD626B1AB10A48FFF771
:10309000A7FE236B013B2363002383F31188019A6E
:1030A0002B689A4201D103B030BDFEF7E9F800BFAA
:1030B00000080020781B0020F0F700080000000046
:1030C00000B50F4A0F4B116B186883B000290190AF
:1030D00009DB526B002A06DD019A1B689A420CD16B
:1030E00003B05DF804FB019A1B689A4205D10648BB
:1030F00003B05DF804EBFFF773BEFEF7C1F800BF45
:10310000781B00200008002040F8000800000000A4
:1031100000B50E4A0E4B116B186883B0019049B987
:10312000526B002A06DD019A1B689A420CD103B04B
:103130005DF804FB019A1B689A4205D1054803B06B
:103140005DF804EBFFF74CBEFEF79AF8781B002001
:103150000008002050F800080000000000000000F7
:1031600010B5084A084B116882B0402401910199BA
:10317000126818199142C3E90E4001D102B010BD86
:10318000FEF77EF800080020781B002000000000F9
:1031900010B51149114B0A6882B00192DA6B9C6A32
:1031A0001460DA6B9C695460DA6B846A9460DA6B41
:1031B00090F820001073DA6B03F5886010328242B9
:1031C00028BF03F14002DA63019A0B689A4201D1E9
:1031D00002B010BDFEF754F800080020781B002054
:1031E00010B50B4A0B4B116882B04FF0FF340191C0
:1031F00000219962019811685C6203F11C02884207
:10320000C3E9072201D102B010BDFEF739F800BFB3
:1032100000080020781B00200000000000000000D3
:103220002DE9F041184E82B00546306801900C46F9
:1032300017469846FFF744FF05B3FFB1F4B1C5E95F
:1032400003781248C3699A68944204D91B68A41A87
:103250009A68A242FAD32B605A686A6015605D6072
:10326000AC609968019D3268091B95424FF0FF34AC
:103270009960446206D102B0BDE8F0810448FFF7CE
:10328000AFFDDCE7FDF7FCFF00080020781B002005
:1032900060F80008000000000000000000000000CE
:1032A00030B5164D83B004462B680193FFF708FF35
:1032B000ECB1E368BBB12268A0689368019903444C
:1032C0009360D4E900231A6020682B680C4A656873
:1032D000456099424FF000054FF0FF30E5605062C5
:1032E00009D103B030BD0748FFF77AFDE3E7054891
:1032F000FFF776FDDDE7FDF7C3FF00BF0008002004
:10330000781B002070F8000800000000000000009A
:1033100000B50A4A0A4B11681B6083B00020019176
:10332000019912685B609142C3E90433986002D14D
:1033300003B05DF804FBFDF7A3FF00BF0008002009
:10334000781B0020000000000000000000000000CA
:1033500030B5164D83B004462B680193FFF7B0FEDD
:10336000ECB194F82030B3B10F2B14D00022A16837
:103370000F4B84F820201B689A688A42FBD2236096
:103380005A686260146001992A685C609142204624
:1033900009D103B030BD0748FFF722FDE6E7054835
:1033A000FFF71EFDDDE7FDF76BFF00BF0008002003
:1033B000781B002080F800080000000000000000DA
:1033C00070B5204D82B02B6801930446202383F30F
:1033D000118800F0CDFDFFF7E3FD94F82030072BB6
:1033E00011D8DFE803F0161010230A04100AA66AA9
:1033F000FFF766FEB3680133B360D4E900231A60B7
:10340000D4E900325A604FF0FF33A3622046FFF741
:103410009FFFFFF7E5FD00F0C3FD002383F3118854
:10342000019A2B689A420BD102B070BDA36A0022A8
:103430001A604FF0FF33A3622046FFF789FFE8E7E9
:10344000FDF71EFF00080020000000000000000043
:10345000F0B5194E194C336883B007460193FFF756
:1034600057FEA569236885F82070142285F823206B
:103470001A68226001215460284683F82010A36155
:10348000FFF786FE2946A06900F022FDEFF30983CD
:10349000EA69643B9A4202D90948FFF7A1FC019A04
:1034A00033689A4206D1A069294603B0BDE8F040CE
:1034B000FCF7FEBEFDF7E4FE00080020781B0020AC
:1034C00090F800080000000000000000000000006C
:1034D000F0B5154C87B0236805930E460746FFF7F5
:1034E00017FE731C18D0114D114AAB69314668465E
:1034F000FFF796FE3846FFF7ABFFFFF7E1FD039BB2
:1035000013B16846FFF7CCFE059A2368A9699A4271
:10351000886A06D107B0F0BD3846FFF799FF034D22
:10352000F2E7FDF7ADFE00BF00080020781B002089
:10353000C13300080000000000000000000000008F
:10354000F0B51E4D1E4E2B6883B0044601930F4606
:10355000FFF7DEFDB069A7628368A2689A421DD9B1
:10356000FFF7F6FE0123074684F82030B461FFF729
:103570000FFE3946204600F0ABFCEFF30983FA69F1
:10358000643B9A4214D8019A2B689A4214D1394666
:10359000204603B0BDE8F040FCF78ABE019A2B68D4
:1035A0009A4209D1204603B0BDE8F040FFF7D0BEF3
:1035B0000448FFF715FCE6E7FDF762FE000800206F
:1035C000781B002090F800080000000000000000B8
:1035D00010B50E490E4B8A69086892F823101C68D2
:1035E0008068926882B0019449B9904234BF00204B
:1035F0000120019A1B689A4206D102B010BD904288
:1036000094BF00200120F4E7FDF73AFE781B00206C
:103610000008002000000000000000000000000082
:1036200070B5184C184E2368A5691A68226054605A
:10363000012283F8202082B01422316885F82320EB
:103640002846A3610191FFF783FE2846FFF7A0FDFE
:103650002946A06900F03CFCEFF30983EA69643B6A
:103660009A4202D90948FFF7BBFB019A33689A4294
:1036700006D1A069294602B0BDE87040FCF718BE2B
:10368000FDF7FEFD781B00200008002090F80008E0
:1036900070B51C4D1C4E2A68AC6913682B60012163
:1036A00082B05D60002082F82010AA613268A168B3
:1036B00084F82000019200E01B689A688A42FBD8D7
:1036C00023605A686260204614605C60FFF760FD0A
:1036D0002146A86900F0FCFBEFF30983E269643B33
:1036E0009A4202D90948FFF77BFB019A33689A4254
:1036F00006D1A869214602B0BDE87040FCF7D8BDEC
:10370000FDF7BEFD781B00200008002090F800089F
:1037100010B50F4C82B023680193FFF7F9FCFFF757
:10372000CFFC0C4B1A689B6992689B689A42019A7D
:10373000236803D89A4208D102B010BD9A4204D13E
:1037400002B0BDE81040FFF7A3BFFDF799FD00BF31
:1037500000080020781B002000000000000000008E
:1037600000B50E4A0E4B9269196892F8232083B077
:10377000019142B1019A1B689A420DD103B05DF8E4
:1037800004EBFFF785BF019A1B689A4204D103B08E
:103790005DF804EBFFF744BFFDF772FD781B0020D6
:1037A00000080020000000000000000000000000F1
:1037B000F0B51A4A1A4D02610446816083B01423A1
:1037C00050692E68616484F82330022700230121A8
:1037D000278484F82210C4E90F3304F16801A3613F
:1037E000019604F12C07636204F1500604F13003E2
:1037F00060610461C4E90C33E1613046E762546101
:1038000000F06EFA304600F08BFA019A2B689A426B
:1038100002D1204603B0F0BDFDF732FD781B002039
:103820000008002000000000000000000000000070
:1038300010B5094B82B01C680194884203D200F88D
:10384000012B8142FBD1019A1B689A4201D102B03F
:1038500010BDFDF715FD00BF0008002000000000AE
:103860002DE9F043184E83B0346801940546DDF825
:1038700028900C4617469846FFF722FC15B1B4F580
:10388000BC7F19D21148FFF7ABFAA4F164012944B7
:10389000E960C1F84080EB68019AC3F8449033684E
:1038A000E9680B4808669A420CD13946284603B0AD
:1038B000BDE8F043FFF77CBF7F2FE3D8B8F1000FDE
:1038C000E3D1DFE7FDF7DCFC00080020E0F80008AA
:1038D000C902000800000000000000000000000015
:1038E0002DE9F04FDFF8A48087B0D8F80040DDF86C
:1038F0004090059407468A46934600F168060446C0
:10390000FF2504F8015BA642FBD107EB0A05A5429F
:1039100004D9552604F8016BA542FBD1039320225C
:1039200082F3118800F0F4FAFFF7FAFA039BCDF85E
:1039300000905A4651463846FFF792FF0021044650
:10394000FFF7FEFDFFF70CFB00F0FAFA0D4B1A68CB
:103950009A4204D0996993688A689A420BD30023EB
:1039600083F31188059AD8F800309A42204606D190
:1039700007B0BDE8F08F0448FFF732FAEFE7FDF734
:103980007FFC00BF781B0020A0F800080008002082
:1039900030B5184C83B0236801930546202383F388
:1039A000118800F0B5FAFFF7BBFA15B91248FFF716
:1039B00017FA29460820FFF78BFDFFF7D1FA00F030
:1039C000BFFA0E4B1A689A4204D0996993688A68C4
:1039D0009A4208D3002383F31188019A23689A42FC
:1039E00005D103B030BD0648FFF7FAF9F2E7FDF75D
:1039F00047FC00BF00080020B0F80008781B00203A
:103A0000A0F8000800000000000000000000000016
:103A100070B5164B164E9C693268E36AA06282B09C
:103A200004F12C05AB42019207D01A68E2621846F5
:103A3000FFF78EFCE36AAB42F7D194F821309B0785
:103A400005D1D4E904231A61D4E904325A610F2064
:103A5000FFF7FEFC019A33689A4205D1054802B08F
:103A6000BDE87040FFF7BCB9FDF70AFC781B0020E9
:103A700000080020F0F8000800000000000000002E
:103A800030B50C4C83B0236801930546202383F3A3
:103A9000118800F03DFAFFF743FA019A23689A4231
:103AA00005D1284603B0BDE83040FFF7B1BFFDF7B0
:103AB000E7FB00BF0008002000000000000000003D
:103AC000F0B50D4D0D4E03682A68B76983B0044602
:103AD000019213B10A48FFF783F927600320BC6203
:103AE000FFF7B6FC019A2B68B1699A42886A01D146
:103AF00003B0F0BDFDF7C4FB00080020781B0020D8
:103B000000F90008000000000000000000000000B4
:103B1000F0B5124D0368124A83B00446286801903C
:103B20000E46976913B10F48FFF75AF966B127603F
:103B3000019A2B68BC629A420ED13146032003B031
:103B4000BDE8F040FFF7C4BC019A2B689A424FF0E1
:103B5000FF3001D103B0F0BDFDF792FB000800205B
:103B6000781B002010F90008000000000000000091
:103B7000F0B5124D04682B6883B00193B4B194F88A
:103B80002030032B06460F460CD100233360019AE8
:103B90002B68A7629A420FD1204603B0BDE8F040DF
:103BA000FFF7D6BB0648FFF71BF9EEE7019A2B6833
:103BB0009A4201D103B0F0BDFDF762FB000800207E
:103BC00030F90008000000000000000000000000C4
:103BD00030B5104A83B01368019381B10E4B019D3B
:103BE0009B69186044685C6023601268436095427A
:103BF0000DD1042003B0BDE83040FFF769BC019946
:103C0000136899424FF0FF3001D103B030BDFDF78A
:103C100037FB00BF00080020781B002000000000D8
:103C200070B5124D04682B6882B0A042019315D084
:103C300023680360586094F82030042B0E4602D0AD
:103C40000B48FFF7CDF8019A2B68A6629A420BD178
:103C5000204602B0BDE87040FFF77ABB019A2B689E
:103C60009A4201D102B070BDFDF70AFB00080020A6
:103C7000C0F8000800000000000000000000000084
:103C80002DE9F041DFF850800468D8F8003082B0A8
:103C9000A042019313D00F4F05460E4623682B60B8
:103CA0005D6094F82030042B02D03846FFF798F876
:103CB000A6622046FFF74CFB2C68A542EED1019A84
:103CC000D8F800309A4202D102B0BDE8F081FDF789
:103CD000D7FA00BFC0F8000800080020000000006C
:103CE00030B50B4B83B01A6801924FF0FF3202607F
:103CF00001991A680024002300259142C0E9044577
:103D0000C0E90133C36001D103B030BDFDF7B8FA9B
:103D1000000800200000000000000000000000007B
:103D200000B5084B084A196883B001915168019A9F
:103D30001B6881609A4202D103B05DF804FBFDF775
:103D40009FFA00BF00080020001000E00000000003
:103D5000F0B51449144B0A68846883B00192134A81
:103D60005B68D2F8A864C2681B1BD0E90445013225
:103D70009B1BC26042688360E61845F100079342CE
:103D8000C0E9046709D80268934238BF0360019A0A
:103D90000B689A4203D103B0F0BD4360F7E7FDF72B
:103DA0006FFA00BF00080020001000E0781B002020
:103DB00030B5114D114C2B6889B04FF0FF3107938E
:103DC000002300226846C4F8A834CDE901330393E8
:103DD0000023CDE904230091FFF7A2FF6846FFF717
:103DE000B7FF079A2B680299C4F8A8149A4201D128
:103DF00009B030BDFDF744FA00080020781B002010
:103E00002DE97048134E144B326883B001925B6801
:103E10008B60D0E902411B1BD0E90445426814EBDA
:103E2000030B45F1000C01319342C0E90231C0E9B6
:103E300004BC0AD80268934238BF0360019A336811
:103E40009A4204D103B0BDE870884360F6E7FDF7FD
:103E500017FA00BF00080020001000E0000000007A
:103E600030B50D4D0D4C2B6883B004F59760019370
:103E70000023C4F8B034C4F8B434FFF731FF019A1A
:103E80002B689A4206D104F59A6003B0BDE8304031
:103E9000FFF726BFFDF7F4F900080020781B00208B
:103EA00000B50949094A0B6883B001930198D2F81B
:103EB000B034096801338842C2F8B03402D103B08B
:103EC0005DF804FBFDF7DCF900080020781B0020FA
:103ED00070B50D4C0D4A236882B00193019DD2F854
:103EE000B43424680133A542C2F8B43409D10E4673
:103EF00000F1500106F1500002B0BDE87040FFF73C
:103F00007FBFFDF7BDF900BF00080020781B00202F
:103F100000B5084B83B01A680192019A1B689A4257
:103F200005D1054803B05DF804EBFFF7F9BEFDF7D6
:103F3000A7F900BF0008002030200020000000008A
:103F400000B5084B83B01A680192019A1B689A4227
:103F500005D1054803B05DF804EBFFF7F9BEFDF7A6
:103F60008FF900BF00080020302000200000000072
:103F700000B5084B83B01A680192019A1B689A42F7
:103F800005D1054803B05DF804EBFFF7C9BEFDF7A6
:103F900077F900BF00080020482000200000000042
:103FA00000B5084B83B01A680192019A1B689A42C7
:103FB00005D1054803B05DF804EBFFF7C9BEFDF776
:103FC0005FF900BF0008002048200020000000002A
:103FD00070B51B4D82B004462B680193FFF798F82B
:103FE00044B3A3682268002B10DBA24203D015481B
:103FF000FEF7F6FEA368013B002BA3600CDB00205C
:10400000019A2B689A4219D102B070BDA242EED03B
:10401000013B002BA360F2DA0B4EB3699C621C607B
:1040200062685A60052013606360FFF711FAB36994
:10403000986AE5E70348FEF7D3FED2E7FDF720F9DB
:104040000008002070F90008781B00200000000024
:1040500030B5164C83B0236801930546202383F3C3
:104060001188FFF755FFFEF75BFF2846FFF7B0FF0B
:104070000546FEF775FFFFF763FF0D4B1A689A427E
:1040800004D0996993688A689A4209D3002383F31C
:104090001188019A23689A42284605D103B030BDA1
:1040A0000448FEF79DFEF1E7FDF7EAF8000800205E
:1040B000781B002060F900080000000000000000EC
:1040C00030B51C4D83B004462B680193FEF7F8FF12
:1040D0004CB3A3682268002B0FDBA24203D0164822
:1040E000FEF77EFEA3680133002BA3600BDD019A6F
:1040F0002B689A421BD103B030BDA242EFD00133EE
:10410000002BA360F3DC20680199036823602A6810
:104110005C6091424FF00003836208D103B0BDE8B8
:104120003040FFF715B90448FEF75AFED1E7FDF716
:10413000A7F800BF0008002080F900080000000078
:1041400030B50B4D83B02B680193044650B1246009
:1041500001992A68646000239142A360236105D11C
:1041600003B030BD0348FEF73BFEF0E7FDF788F8EB
:1041700000080020A0F90008000000000000000076
:10418000F0B55D4E5D4B32689D6983B00446019287
:10419000FEF7BEFF002C00F08480A0682369002891
:1041A00043D0002B40F39780854276D0AA6883687D
:1041B0009A4208D990F820308260062B40D0072B15
:1041C00073D0002B5DD02746234603E09968AA6888
:1041D000914233D31B689C42F8D12F607B686B609F
:1041E00006201D607D60AC62FFF732F9A368AB4228
:1041F00002D04348FEF7F4FD2B6CA34202D04048A6
:10420000FEF7EEFD2369012B05D1019A33689A422E
:104210006FD103B0F0BD019A33689A4269D1384832
:1042200003B0BDE8F040FEF7DBBD002B58D10133F1
:10423000A56023612B6CE3602C64E6E71F46CCE7A6
:10424000D0E900231A60D0E900325A60876A3B4601
:1042500003E099688268914247D31B689F42F8D176
:1042600007607B68436018607860836AAA68986812
:1042700083689342A7D290F820308260062B9ED1AB
:10428000DEE7D0E90023012180F820101A60D0E990
:1042900000325A60FFF75CF895E723690133236128
:1042A000B3E71748FEF79CFD77E7D0E900231A60D3
:1042B000D0E900325A60876A3B4603E09968826819
:1042C000914214D31B689F42F8D107607B6843601A
:1042D0001860786077E70A48FEF782FDA06863E718
:1042E0000748FEF77DFD2369A1E71F46B8E71F4693
:1042F000EBE7FCF7C5FF00BF00080020781B00209B
:10430000B0F90008000000000000000000000000FC
:1043100030B5154C83B0236801930546202383F301
:104320001188FFF7F5FDFEF7FBFD2846FFF728FF94
:10433000FEF716FEFFF704FE0C4B1A689A4204D0F3
:10434000996993688A689A4208D3002383F3118895
:10435000019A23689A4205D103B030BD0448FEF7A4
:104360003FFDF2E7FCF78CFF00080020781B0020DF
:1043700090F90008000000000000000000000000AC
:104380002DE9F043DFF800813C4FD8F80030BE69DA
:1043900083B005460193002864D0202383F311885D
:1043A000FFF7B6FDFEF7BCFD336C002B5ED09B68BB
:1043B000B34202D03248FEF713FD2B69002B49DDD2
:1043C000013B2B615BBB336CAB4202D02C48FEF748
:1043D00007FDEB683364FEF79BFE2B689D423ED0E1
:1043E000D6E910495CB1FEF793FE23689C4203D0E6
:1043F0009B68994538BF9946E468002CF3D1C6F80C
:1044000008902B6801222A611A682A605560AB6007
:104410001A6CEA6018461D640021FFF791F8FEF758
:104420009FFDFFF78DFD3B68BB4204D0BA699B68D6
:1044300092689A420AD3002383F31188019AD8F82C
:1044400000309A4217D103B0BDE8F0830D48FEF763
:10445000C7FCF0E70A48FEF7C3FC2B69B0E700236E
:10446000AB60DCE70648FEF7BBFC96E70448FEF7C6
:10447000B7FC336C9BE7FCF703FF00BF781B002001
:10448000C0F9000890F900080008002000000000B2
:1044900070B5114E82B0044633680193FEF710FEEA
:1044A0009CB12068A0420AD06FF001050368236028
:1044B0005C60FEF74DFF85622068A042F6D1019A4C
:1044C00033689A4205D102B070BD0448FEF788FCFB
:1044D000E7E7FCF7D5FE00BF00080020E0F9000880
:1044E00030B5164C83B0236801930546202383F32F
:1044F0001188FFF70DFDFEF713FD2846FFF7C8FFF3
:10450000FFF706F9FEF72CFDFFF71AFD0C4B1A68B2
:104510009A4204D0996993688A689A4208D3002322
:1045200083F31188019A23689A4205D103B030BD04
:104530000448FEF755FCF2E7FCF7A2FE0008002055
:10454000781B0020D0F900080000000000000000E7
:1045500070B5184E82B00446336801930D46FEF7DD
:10456000AFFD0CB3E16B94F8203029430A2BE163D3
:1045700016D00B2B05D0019A33689A4218D102B09D
:1045800070BDA36A8B43F6D1019A336800219A4229
:10459000A1620DD1204602B0BDE87040FEF7D8BE42
:1045A000A36A1942F0D1E6E70348FEF719FCD9E700
:1045B000FCF766FE0008002020FA0008000000005A
:1045C000F0B5134F83B006463B6801930D46FEF7E6
:1045D00077FDB6B13468A6420DD0E3682B43E360A3
:1045E00015B12269134203D0D4E90101FFF7B0FFEE
:1045F0002468A642F1D1019A3B689A4205D103B0E2
:10460000F0BD0448FEF7ECFBE4E7FCF739FE00BF21
:104610000008002000FA0008000000000000000070
:1046200070B50C4CC16082B0266801960A440060E7
:10463000019E02612268069D4060C0E90511964214
:104640004FF00001C3618160056201D102B070BD0D
:10465000FCF716FE0008002000000000000000002B
:1046600030B50D4D83B02B6801930446FEF728FD4D
:1046700001992A68E368A36100209142A060636108
:1046800007D120466FF0010103B0BDE83040FFF7CD
:10469000F7BAFCF7F5FD00BF00080020000000009D
:1046A00070B5164D82B004462B6801930E46FEF796
:1046B00007FDFEF705FDD4E905239A42A36816D04D
:1046C0000133511CA36061611670D4E904329A422F
:1046D0000AD220460021FFF7A3FA0020019A2B6896
:1046E0009A4209D102B070BDE3686361F1E7002B23
:1046F000E6D06FF00300F1E7FCF7C2FD00080020F0
:10470000F0B5234F83B03B68019304460E46202347
:1047100083F31188FFF7FCFBFEF702FCE36943B16A
:104720002046984705E031462046FFF751FA051E1E
:1047300010DBFEF7C5FCA368002BF4D0A16920694B
:104740004A1C013B8242A360A26128BFE3680D7846
:1047500028BFA361FEF704FCFFF7F2FB0D4B1A68BC
:104760009A4204D0996993688A689A4209D30023CF
:1047700083F31188019A3B689A42284605D103B019
:10478000F0BD0548FEF72CFBF1E7FCF779FD00BF13
:1047900000080020781B002030FA0008000000000C
:1047A0002DE9F04FDFF8F490044685B0D9F8000009
:1047B00003908A461D46D4F81C809346002A60D098
:1047C000202383F311880193FFF7A2FBFEF7A8FBD8
:1047D0002F4E0027B8F1000F07D02046C04704E055
:1047E00029462046FFF7F4F960BBFEF769FCA36891
:1047F000002BF5D0A269013B511CA161A360137885
:104800000AF8013B2369A2699A4224BFE368A361C5
:10481000FEF7A6FBFFF794FB3368B34204D0B269FE
:104820009B6892689A4228D3002383F3118801374A
:10483000BB4519D0019B83F31188FFF769FBFEF795
:104840006FFBC7E7FEF78CFBFFF77AFB3368B342D9
:1048500007D0B2699B6892689A4202D20D48FEF76F
:10486000BFFA002383F31188039AD9F800309A42E3
:1048700038460AD105B0BDE8F08F0648FEF7B0FA19
:10488000D2E70548FEF7ACFA9AE7FCF7F9FC00BF5F
:10489000781B002030FA000840FA000800080020C9
:1048A00070B50B4D82602E68C16082B0C0E9000017
:1048B00001960A44019E02612A68069C9642C0E95C
:1048C0000511C0E9073401D102B070BDFCF7D8FC76
:1048D00000080020000000000000000000000000B0
:1048E00030B50D4D83B004462B680193FEF7E8FB0D
:1048F000D4E9032301982968A2619B1A8842626166
:10490000A36007D120466FF0010103B0BDE830403D
:10491000FFF7B6B9FCF7B4FC000800200000000067
:104920002DE9F0412E4F82B03B6801930446884642
:104930001646202383F31188FFF7EAFAFEF7F0FA10
:1049400005E031462046FFF743F9051E2DDBFEF753
:10495000B7FBA368002BF4D06269013B511C616175
:10496000A36082F80080D4E904329A4224BFE3684D
:104970006361E3690BB120469847FEF7F1FAFFF750
:10498000DFFA184B1A689A4204D0996993688A68CA
:104990009A421ED3002585F31188019A3B689A42FA
:1049A00028461AD102B0BDE8F081FEF7D9FAFFF728
:1049B000C7FA0C4B1A689A4207D0996993688A68BB
:1049C0009A4202D20848FEF70BFA002383F31188BB
:1049D000E3E70548FEF704FADCE7FCF751FC00BF0B
:1049E00000080020781B002030FA000800000000BA
:1049F00070B5154E82B0044633680193FEF760FB34
:104A0000FEF75EFBD4E905329342A36815D0206916
:104A1000511C0133A360A161814215780AD220465E
:104A20000021FFF7FDF82846019A33689A4209D120
:104A300002B070BDE368A361F1E7002BE7D06FF02F
:104A40000200F1E7FCF71CFC000800200000000059
:104A50002DE9F04F04463B48D4F81C90006885B01F
:104A60000D46039001931646002A61D04FF0200AAC
:104A70008AF31188FFF74CFAFEF752FA4FF000085C
:104A8000314FC346FEF71CFBA368002B32D062698E
:104A9000013B511C6161A3602B781370D4E904328F
:104AA0009A4224BFE36863610135B9F1000F01D078
:104AB0002046C847FEF754FAFFF742FA3B68BB426C
:104AC00007D0BA699B6892689A4202D21F48FEF7E3
:104AD00087F98BF31188013E08F101081FD08AF392
:104AE0001188FFF715FAFEF71BFAFEF7E9FAA3683B
:104AF000002BCCD101992046FFF76AF80028C1D0DD
:104B0000FEF72EFAFFF71CFA3B68BB4204D0BA69E5
:104B10009B6892689A420FD3002383F31188094B54
:104B2000039A1B689A4240460AD105B0BDE8F08F4F
:104B30000748FEF755F999E70448FEF751F9EBE706
:104B4000FCF79EFB00080020781B002030FA0008CC
:104B500050FA000800000000000000000000000003
:104B600030B50B490B4A0B680B4D0C4C83B022F04F
:104B70000702019301980A4B09682A6023F0070392
:104B80008842236001D103B030BDFCF779FB00BF40
:104B9000000800204F2A0020EC210020E8210020FE
:104BA00000000220000000000000000000000000E3
:104BB00070B51C4E82B0336801930446202383F302
:104BC0001188FFF7A5F9FEF7ABF9FEF779FA164A57
:104BD000164B15681B68E01D20F007005B1B984210
:104BE0009ABF401910600025FEF7BAF9FFF7A8F93F
:104BF0000F4B1A689A4204D0996993688A689A425E
:104C000009D3002383F31188019A33689A42284616
:104C100005D102B070BD0748FEF7E2F8F1E7FCF7F6
:104C20002FFB00BF00080020EC210020E82100201D
:104C3000781B002070FA000800000000000000004F
:104C400000B50B4B0B481A6883B0019201991A68A2
:104C5000094B036091424FF00003C0E9023305D1D4
:104C6000103003B05DF804EBFFF76ABAFCF708FBFD
:104C700000080020F0210020B14B000800000000D7
:104C800080B50D4A0D4982B000AF13687B604B6858
:104C900023F001034B60EFF30983683383F3098842
:104CA000002383F3118879681368994202D1083789
:104CB000BD4680BDFCF7E4FA0008002030EF00E0BC
:104CC000B0B5194C82B000AF23687B60202383F31A
:104CD0001188164B5B6813F4006308D183F31188C5
:104CE0007A6823689A421DD10837BD46B0BDF1EEFF
:104CF000103AEFF309854FF080720D4B45F84C2CBC
:104D0000DB6845F8083CA5F1680383F30988FEF7E2
:104D10005FFC18B1074B45F8503CE1E7064B45F8FE
:104D2000503CDDE7FCF7ACFA0008002000ED00E0A5
:104D300030EF00E0E1020008F4020008000000008B
:104D400010B5184C82B02368019302F029FF164871
:104D500004F0BEFB00F0D4F800F0EAF900F030FAFD
:104D600000F05EFA00F08CFA00F0BAFA00F040FCB5
:104D700000F06EFC01F0BCFA01F0C2F901F0D0FEC7
:104D800001F016FF01F004FD06F012FE019A2368FF
:104D90009A4204D102B0BDE8104001F0F1BEFCF728
:104DA0006FFA00BF00080020200101080000000089
:104DB000F0B51A4D83B02B68019391420E4614460C
:104DC000074619D38B1A1F2B16D806F01F03581C41
:104DD0006209012376098340B24203F1FF3304F0F4
:104DE0001F0457F822000BD31840E040019A2B68AB
:104DF0009A4210D103B0F0BD0948FDF7F1FFE4E796
:104E000057F82610C4F120020B4020FA04F403FAEC
:104E100002F02043EAE7FCF733FA00BF0008002065
:104E200080FA000800000000000000000000000000
:104E3000F0B51D4E83B033680193054670B37E22F2
:104E40007F212846FFF7B4FF80B1012806D000205B
:104E5000019A33689A4225D103B0F0BD284630222A
:104E60004521FFF7A5FF01308002F1E73E224921ED
:104E70002846FFF79DFF2F22044631212846FFF7E1
:104E800097FF5022074653212846FFF791FF013430
:104E900002370938BC4004FA00F0D9E70348FDF7AF
:104EA0009FFFCCE7FCF7ECF900080020A0FA00080F
:104EB000F0B5104D83B02B680193044698B194F877
:104EC000D63094F8D770019994F8D4602A6894F891
:104ED000D5001B0403EB07633344914203EB00202E
:104EE00005D103B0F0BD0448FDF77AFFE7E7FCF712
:104EF000C7F900BF00080020C0FA00080000000049
:104F000000B5074B83B01A680192019A1B689A4258
:104F100004D103B05DF804EB02F002BFFCF7B0F976
:104F20000008002000000000000000000000000059
:104F300000B50C4B83B01A680192012202700199EE
:104F40001A6800239142C0E90133C0E90333436189
:104F500005D1183003B05DF804EBFFF7F1B8FCF7AA
:104F60008FF900BF000800200000000000000000D2
:104F700070B51D4D82B02B6801930E46044668B390
:104F8000202383F31188FEF7C3FFFDF7C9FF2378C1
:104F9000013B012B02D91548FDF722FF2046666030
:104FA00002F00EFF02232370FDF7DAFFFEF7C8FFC1
:104FB0000F4B1A689A4204D0996993688A689A429A
:104FC00008D3002383F31188019A2B689A4209D1F0
:104FD00002B070BD0748FDF703FFF2E70348FDF795
:104FE000FFFECDE7FCF74CF900080020F0FA0008BE
:104FF000781B0020E0FA000800000000000000001C
:105000002DE9F041174D82B00446286801900E4604
:1050100090461F46FEF754F83CB136B1B8F1000F88
:1050200003D0012F04D0FB0702D50F48FDF7D8FEAF
:105030002378022B05D0043B012B02D90A48FDF747
:10504000CFFE03232370019A2B6826619A42C4E99C
:10505000028705D1204602B0BDE8F04102F030BF22
:10506000FCF70EF90008002000FB0008000000001B
:105070002DE9F041184C82B0256801959846054607
:105080000E461746202383F31188FEF741FFFDF7F4
:1050900047FF43463A4631462846FFF7B1FFFDF742
:1050A0005FFFFEF74DFF0D4B1A689A4204D09969D5
:1050B00093688A689A4209D3002383F31188019A7E
:1050C00023689A4206D102B0BDE8F0810448FDF79A
:1050D00087FEF1E7FCF7D4F800080020781B0020D9
:1050E000E0FA0008000000000000000000000000DE
:1050F00030B50B4C83B023680193054650B1019A3B
:1051000023689A420AD105F1180003B0BDE8304087
:10511000FFF7FEB80348FDF763FEF0E7FCF7B0F8D1
:105120000008002020FB0008000000000000000034
:1051300000B5074B83B01A680192019A1B689A4226
:1051400004D103B05DF804EB03F00ABDFCF798F856
:105150000008002000000000000000000000000027
:1051600030B5134B83B01A68019201220270019C82
:105170001968002200F1180300F11C0542608361E8
:1051800000F1200200F12403C561026200F128054C
:1051900000F1080243628C4200F110038562C0E90D
:1051A0000222C0E9043301D103B030BDFCF768F836
:1051B00000080020000000000000000000000000C7
:1051C00000B5074B83B01A680192019A1B689A4296
:1051D00004D103B05DF804EB04F05AB9FCF750F8C1
:1051E0000008002000000000000000000000000097
:1051F00000B50A4B83B01A6801920122027001992E
:105200001A6800239142C0E9043305D1183003B075
:105210005DF804EBFEF794BFFCF732F800080020BD
:1052200000B5074B83B01A680192019A1B689A4235
:1052300004D103B05DF804EB03F0B2BCFCF720F836
:105240000008002000000000000000000000000036
:1052500000B5084B83B01A68019201220270019ACE
:105260001B6800219A42416002D103B05DF804FB43
:10527000FCF706F800080020000000000000000015
:1052800000B5074B83B01A680192019A1B689A42D5
:1052900004D103B05DF804EB05F012BFFBF7F0FF9B
:1052A00000080020000000000000000000000000D6
:1052B00000B5084B83B01A68019201220270019A6E
:1052C0001B6800219A42416002D103B05DF804FBE3
:1052D000FBF7D6FF000800200000000000000000DF
:1052E00000B5074B83B01A680192019A1B689A4275
:1052F00004D103B05DF804EB04F0E2BBFBF7C0FFA0
:105300000008002000000000000000000000000075
:1053100000B50A4B83B01A68019201220270019A0B
:105320001B6800219A42416005D10C3003B05DF842
:1053300004EBFEF705BFFBF7A3FF00BF000800204A
:1053400070B51F4D82B02B6801930E46044680B3A2
:1053500079B323785A1E012A04D9052B02D01948A3
:10536000FDF73EFD202383F31188FEF7D1FDFDF705
:10537000D7FD2046666004F0CBFB02232370FDF7C7
:10538000EFFDFEF7DDFD104B1A689A4204D09969D3
:1053900093688A689A4208D3002383F31188019A9C
:1053A0002B689A4209D102B070BD0848FDF718FD7C
:1053B000F2E70448FDF714FDCBE7FBF761FF00BF00
:1053C0000008002040FB0008781B002030FB00088C
:1053D00030B51D4D83B02B680193044670B323781C
:1053E0005A1E012A04D9052B02D01848FDF7F8FCF3
:1053F000202383F31188FEF78BFDFDF791FD2046F6
:1054000004F0C6FC01232370FDF7AAFDFEF798FD0A
:105410000F4B1A689A4204D0996993688A689A4235
:1054200008D3002383F31188019A2B689A4209D18B
:1054300003B030BD0748FDF7D3FCF2E70348FDF7A2
:10544000CFFCCCE7FBF71CFF0008002050FB000856
:10545000781B002030FB0008000000000000000066
:1054600030B5094D83B02B680193044630B1019AE1
:105470002B68A0689A4205D103B030BD0348FDF700
:10548000AFFCF4E7FBF7FCFE0008002060FB00081F
:105490002DE9F04F304E87B034680594DDF840B008
:1054A0000D4690461F46DDE9119A044608B10029D1
:1054B0003DD12A48FDF794FC2378022B02D02748DF
:1054C000FDF78EFC202383F31188FEF721FDFDF705
:1054D00027FD4FF0000C0320C4F808C042462946BF
:1054E00020703B462046CDE9019ACDF800B004F08B
:1054F000A7FC431C0CBF0523022323700546FDF7C0
:105500002FFDFEF71DFD164B1A689A4204D09969CB
:1055100093688A689A4218D3002383F31188059A06
:1055200033689A42284614D107B0BDE8F08F002BAB
:10553000BFD0002ABDD0B9F1000F02D0BBF1000FDF
:10554000B7D0BAF1000FB7D1B3E70648FDF748FC72
:10555000E2E7FBF795FE00BF0008002070FB0008A3
:10556000781B002030FB0008000000000000000055
:1055700030B50B4C83B023680193054650B1019AB6
:1055800023689A420AD105F10C0003B0BDE830400F
:10559000FEF7BEBE0348FDF723FCF0E7FBF770FE05
:1055A0000008002090FB0008000000000000000040
:1055B00030B50B4C83B023680193054650B1019A76
:1055C00023689A420AD105F10C0003B0BDE83040CF
:1055D000FEF7D6BE0348FDF703FCF0E7FBF750FEED
:1055E00000080020A0FB00080000000000000000F0
:1055F00000B5074B83B01A680192019A1B689A4262
:1056000004D103B05DF804EB05F09ABCFBF738FE5B
:105610000008002000000000000000000000000062
:1056200000B5084B83B01A68019201220270019AFA
:105630001B6800219A42416002D103B05DF804FB6F
:10564000FBF71EFE00080020000000000000000024
:1056500000B5074B83B01A680192019A1B689A4201
:1056600004D103B05DF804EB05F012BEFBF708FEB1
:105670000008002000000000000000000000000002
:1056800000B5094B83B01A6801920122027001999A
:105690001A68002391424360C360037402D103B0CF
:1056A0005DF804FBFBF7ECFD0008002000000000A3
:1056B00070B5214E82B0336801930D460446002830
:1056C00033D0002931D0202383F31188FEF720FC4A
:1056D000FDF726FC2378013B012B02D91748FDF783
:1056E0007FFB65606B68A360204605F011FE002219
:1056F0000223E2602370FDF733FCFEF721FC104B20
:105700001A689A4204D0996993688A689A4208D3C1
:10571000002383F31188019A33689A4209D102B0B9
:1057200070BD0848FDF75CFBF2E70448FDF758FB45
:10573000C9E7FBF7A5FD00BF00080020C0FB00087B
:10574000781B0020B0FB00080000000000000000F3
:1057500070B51C4E82B0336801930C46054650B3B9
:10576000202383F31188FEF7D3FBFDF7D9FB2B78B9
:10577000022B02D01448FDF733FBAB69AC60013C4F
:10578000DC62FDF7EDFBFEF7DBFB104B1A689A427B
:1057900004D0996993688A689A4208D3002383F3F6
:1057A0001188019A33689A4209D102B070BD084845
:1057B000FDF716FBF2E70448FDF712FBD0E7FBF715
:1057C0005FFD00BF00080020D0FB0008781B002010
:1057D000B0FB000800000000000000000000000016
:1057E000F0B5214E83B0336801930D461746044649
:1057F00078B3037C8B422CD9202383F31188FEF7E6
:1058000087FBFDF78DFB2378022B02D01748FDF7AD
:10581000E7FAE3680122AA401343E3603A462946C7
:10582000204605F05DFEFDF79BFBFEF789FB104B64
:105830001A689A4204D0996993688A689A420CD38C
:10584000002383F31188019A33689A4209D103B087
:10585000F0BD0648FDF7C4FACEE70648FDF7C0FAEA
:10586000EEE7FBF70DFD00BF00080020E0FB00089D
:10587000781B0020B0FB00080000000000000000C2
:1058800070B5204E82B0336801930D46044678B35C
:10589000037C8B422CD9202383F31188FEF738FB3D
:1058A000FDF73EFB2378022B02D01748FDF798FA4C
:1058B000E3680122AA4023EA0203E3602946204666
:1058C00005F026FEFDF74CFBFEF73AFB0F4B1A687E
:1058D0009A4204D0996993688A689A420CD300234B
:1058E00083F31188019A33689A4209D102B070BDDE
:1058F0000548FDF775FACEE70548FDF771FAEEE7C2
:10590000FBF7BEFC0008002000FC0008781B00200C
:10591000B0FB0008000000000000000000000000D4
:1059200030B51E4D83B02B680193044680B320230D
:1059300083F31188FEF7ECFAFDF7F2FA2378022BD5
:1059400002D01748FDF74CFA63689B68E3B1204624
:1059500005F0FEFDFDF704FBFEF7F2FA114B1A68A5
:105960009A4204D0996993688A689A4208D30023BE
:1059700083F31188019A2B689A420DD103B030BD90
:105980000948FDF72DFAF2E70548FDF729FADEE7A9
:105990000348FDF725FACAE7FBF772FC0008002070
:1059A00020FC0008781B0020B0FB0008000000006D
:1059B00070B5294E82B0336801930D460446002825
:1059C00032D0037C8B422FD9202383F31188FEF73A
:1059D0009FFAFDF7A5FA2378022B02D01F48FDF7A6
:1059E000FFF9E368EB40DB0726D5636803EBC503EB
:1059F0001B6953B32946204605F0CAFDFDF7B0FAEE
:105A0000FEF79EFA164B1A689A4204D09969936879
:105A10008A689A420CD3002383F31188019A336871
:105A20009A4216D102B070BD0C48FDF7D9F9CBE708
:105A30000C48FDF7D5F9EEE70848FDF7D1F96368A2
:105A400003EBC5031B69002BD4D10448FDF7C8F94B
:105A5000D0E7FBF715FC00BF0008002040FC000861
:105A6000781B0020B0FB00080000000000000000D0
:105A700070B5104D82B02B6801930E46044650B1AC
:105A800049B12379052B0CD00120019A2B689A4249
:105A90000ED102B070BD0848FDF7A2F92379052B9D
:105AA000F2D1A36A73604FF4007333600020ECE717
:105AB000FBF7E6FB00080020D0FC00080000000017
:105AC0002DE9F047DFF89C8386B002AFD8F80030AC
:105AD000FB600446002800F019812379022B01D0D5
