:020000040800F2
:1000000000040020C1010008D1260008D126000804
:10001000111E0008D1260008D1260008D1260008AC
:10002000D1260008D1260008D12600087146000814
:10003000D1260008D1260008D126000851AE0008BC
:10004000D1260008117E0008A17F0008F17F00087A
:10005000D1260008D1260008517B0008A17B0008AA
:10006000F17B0008417C0008917C0008A16D00082C
:10007000F16D0008416E0008916E0008E16E000805
:10008000316F0008816F00089178000891810008A5
:1000900001820008B182000861830008E17C000849
:1000A000D1260008D126000841A90008D126000861
:1000B00051AA000891AA0008D1AA000821910008BD
:1000C00061920008D1260008D1260008D126000838
:1000D000D1260008D1260008D126000811AF00085B
:1000E000717D0008617E0008B17E0008D1260008FD
:1000F000D1260008D1260008D1260008D16F0008BB
:10010000D1260008F184000811AB0008D1260008B0
:10011000D1260008D126000801A90008D126000830
:100120002170000871700008C1700008117100088A
:1001300061710008D1260008017F0008D12600085F
:10014000D1260008D1260008D126000841A50008C4
:10015000B17100080172000851720008D126000830
:10016000D1260008D1260008D1260008D126000893
:10017000517F0008D1260008F1130008D12600089D
:10018000D1260008D1260008D1260008D126000873
:10019000D1260008D1260008D1260008D126000863
:1001A000D1260008D1260008D1260008D126000853
:1001B000D1260008D1260008D1260008D126000843
:1001C00072B62E4880F3098840F20000CCF200009D
:1001D0004EF63471CEF20001086040F20000C0F229
:1001E000F0004EF68851CEF2000108604FF000009A
:1001F000E1EE100A4EF63C71CEF2000108600620D6
:1002000080F31488BFF36F8F0AF0CAFF4FF05530A8
:100210001B491C4A91423CBF41F8040BFAE71A49BA
:10022000164A91423CBF41F8040BFAE71749184AB5
:10023000184B9A423EBF51F8040B42F8040BF8E702
:1002400000201549154A91423CBF41F8040BFAE7DA
:1002500002F026FA124C134DAC4203DA54F8041B98
:100260008847F9E701F044F80F4C104DAC4203DA2F
:1002700054F8041B8847F9E702F022BA000800206E
:100280000000002000040020000400206802010893
:1002900000080020FC1100200012002098270020F8
:1002A000C0010008C0010008C0010008C00100082A
:1002B0002DE9F04F2DED108AC1F80CD0D0F80CD0FC
:1002C000BDEC108ABDE8F08F02F042FB03F030FB7A
:1002D000002383F311882846A047002003F0C8F8C4
:1002E00003F00EFB02F014FB02F032FF02F030FBD1
:1002F00003F01EFB00DFFEE700000000000000002E
:1003000081F0004102E000BF83F0004330B54FEAC6
:1003100041044FEA430594EA050F08BF90EA020F33
:100320001FBF54EA000C55EA020C7FEA645C7FEAC6
:10033000655C00F0E2804FEA5454D4EB5555B8BFE9
:100340006D420CDD2C4480EA020281EA030382EA5A
:10035000000083EA010180EA020281EA0303362DEC
:1003600088BF30BD11F0004F4FEA01314FF4801CBF
:100370004CEA113102D0404261EB410113F0004FD1
:100380004FEA03334CEA133302D0524263EB430388
:1003900094EA050F00F0A780A4F10104D5F1200E26
:1003A0000DDB02FA0EFC22FA05F2801841F1000181
:1003B00003FA0EF2801843FA05F359410EE0A5F155
:1003C00020050EF1200E012A03FA0EFC28BF4CF086
:1003D000020C43FA05F3C01851EBE37101F000453C
:1003E00007D54FF0000EDCF1000C7EEB00006EEB49
:1003F0000101B1F5801F1BD3B1F5001F0CD34908D3
:100400005FEA30004FEA3C0C04F101044FEA445229
:1004100012F5800F80F09A80BCF1004F08BF5FEAB0
:10042000500C50F1000041EB045141EA050130BD90
:100430005FEA4C0C404141EB010111F4801FA4F133
:100440000104E9D191F0000F04BF01460020B1FA88
:1004500081F308BF2033A3F10B03B3F120020CDAC0
:100460000C3208DD02F1140CC2F10C0201FA0CF09E
:1004700021FA02F10CE002F11402D8BFC2F1200C03
:1004800001FA02F120FA0CFCDCBF41EA0C019040B9
:10049000E41AA2BF01EB0451294330BD6FEA040402
:1004A0001F3C1CDA0C340EDC04F11404C4F12002ED
:1004B00020FA04F001FA02F340EA030021FA04F3FF
:1004C00045EA030130BDC4F10C04C4F1200220FA56
:1004D00002F001FA04F340EA0300294630BD21FA94
:1004E00004F0294630BD94F0000F83F4801306BF5A
:1004F00081F480110134013D4EE77FEA645C18BF4E
:100500007FEA655C29D094EA050F08BF90EA020FE4
:1005100005D054EA000C04BF1946104630BD91EADC
:10052000030F1EBF0021002030BD5FEA545C05D1DF
:100530004000494128BF41F0004130BD14F580041E
:100540003CBF01F5801130BD01F0004545F0FE4192
:1005500041F470014FF0000030BD7FEA645C1ABFC7
:10056000194610467FEA655C1CBF0B46024650EAFE
:10057000013406BF52EA033591EA030F41F400212A
:1005800030BD00BF90F0000F04BF0021704730B5B0
:100590004FF4806404F132044FF000054FF0000185
:1005A00050E700BF90F0000F04BF0021704730B546
:1005B0004FF4806404F1320410F0004548BF40421B
:1005C0004FF000013EE700BF42004FEAE2014FEA70
:1005D00031014FEA02701FBF12F07F4393F07F4F4B
:1005E00081F06051704732F07F4208BF704793F04E
:1005F0007F4F04BF41F40021704730B54FF4607461
:1006000001F0004521F000411CE700BF50EA010263
:1006100008BF704730B54FF000050AE050EA01020C
:1006200008BF704730B511F0004502D5404261EB7C
:1006300041014FF4806404F132045FEA915C3FF4BD
:10064000D8AE4FF003025FEADC0C18BF03325FEA5A
:10065000DC0C18BF033202EBDC02C2F1200300FA0B
:1006600003FC20FA02F001FA03FE40EA0E0021FA30
:1006700002F11444BDE600BF0000000000000000CD
:1006800070B54FF0FF0C4CF4E06C1CEA11541DBF28
:100690001CEA135594EA0C0F95EA0C0F00F0DEF8F3
:1006A0002C4481EA030621EA4C5123EA4C5350EAD8
:1006B000013518BF52EA033541F4801143F4801329
:1006C00038D0A0FB02CE4FF00005E1FB02E506F0BA
:1006D0000042E0FB03E54FF00006E1FB03569CF00F
:1006E000000F18BF4EF0010EA4F1FF04B6F5007F15
:1006F00064F5407404D25FEA4E0E6D4146EB060687
:1007000042EAC62141EA55514FEAC52040EA5E500F
:100710004FEACE2EB4F1FD0C88BFBCF5E06F1ED8B9
:10072000BEF1004F08BF5FEA500E50F1000041EBF0
:10073000045170BD06F0004646EA010140EA02009D
:1007400081EA0301B4EB5C04C2BFD4EB0C0541EABF
:10075000045170BD41F480114FF0000E013C00F3D4
:10076000AB8014F1360FDEBF002001F0004170BDF8
:10077000C4F10004203C35DA0C341BDC04F1140411
:10078000C4F1200500FA05F320FA04F001FA05F29D
:1007900040EA020001F0004221F0004110EBD3706A
:1007A00021FA04F642EB06015EEA430E08BF20EA96
:1007B000D37070BDC4F10C04C4F1200500FA04F339
:1007C00020FA05F001FA04F240EA020001F00041CB
:1007D00010EBD37041F100015EEA430E08BF20EA3E
:1007E000D37070BDC4F1200500FA05F24EEA020E86
:1007F00020FA04F301FA05F243EA020321FA04F0B5
:1008000001F0004121FA04F220EA020000EBD3706B
:100810005EEA430E08BF20EAD37070BD94F0000F6B
:100820000FD101F00046400041EB010111F4801F9F
:1008300008BF013CF7D041EA060195F0000F18BF50
:10084000704703F00046520043EB030313F4801F8C
:1008500008BF013DF7D043EA0603704794EA0C0F46
:100860000CEA135518BF95EA0C0F0CD050EA41065C
:1008700018BF52EA4306D1D181EA030101F00041D9
:100880004FF0000070BD50EA410606BF1046194601
:1008900052EA430619D094EA0C0F02D150EA01360D
:1008A00013D195EA0C0F05D152EA03361CBF10464E
:1008B00019460AD181EA030101F0004141F0FE41ED
:1008C00041F470014FF0000070BD41F0FE4141F471
:1008D000780170BD70B54FF0FF0C4CF4E06C1CEA71
:1008E00011541DBF1CEA135594EA0C0F95EA0C0F26
:1008F00000F0A7F8A4EB050481EA030E52EA0335E1
:100900004FEA013100F088804FEA03334FF0805501
:1009100045EA131343EA12634FEA022245EA11152E
:1009200045EA10654FEA00260EF000419D4208BFDF
:10093000964244F1FD0404F5407402D25B084FEA8C
:100940003202B61A65EB03055B084FEA32024FF438
:1009500080104FF4002CB6EB020E75EB030E22BF95
:10096000B61A754640EA0C005B084FEA3202B6EB55
:10097000020E75EB030E22BFB61A754640EA5C0004
:100980005B084FEA3202B6EB020E75EB030E22BF94
:10099000B61A754640EA9C005B084FEA3202B6EB95
:1009A000020E75EB030E22BFB61A754640EADC0054
:1009B00055EA060E18D04FEA051545EA16754FEAB6
:1009C00006164FEAC30343EA52734FEAC2025FEAD4
:1009D0001C1CC0D111F4801F0BD141EA00014FF063
:1009E00000004FF0004CB6E711F4801F04BF014334
:1009F0000020B4F1FD0C88BFBCF5E06F3FF6AFAE50
:100A0000B5EB030C04BFB6EB020C5FEA500C50F1DF
:100A1000000041EB045170BD0EF0004E4EEA113162
:100A200014EB5C04C2BFD4EB0C0541EA045170BD69
:100A300041F480114FF0000E013C90E645EA060EAD
:100A40008DE60CEA135594EA0C0F08BF95EA0C0FDB
:100A50003FF43BAF94EA0C0F0AD150EA01347FF423
:100A600034AF95EA0C0F7FF425AF104619462CE7FA
:100A700095EA0C0F06D152EA03353FF4FDAE10465D
:100A8000194622E750EA410618BF52EA43067FF4AE
:100A9000C5AE50EA41047FF40DAF52EA43057FF43E
:100AA000EBAE12E7000000000000000000000000B4
:100AB0004FEA410212F5001215D211D56FF4787386
:100AC000B3EB625212D94FEAC12343F0004343EA29
:100AD000505311F0004F23FA02F018BF4042704704
:100AE0004FF00000704750EA013005D111F000408E
:100AF00008BF6FF0004070474FF00000704700BF24
:100B00004FEA4102B2F1E04324BFB3F5001CDCF12F
:100B1000FE5C0DD901F0004C4FEAC0024CEA507067
:100B2000B2F1004F40EB830008BF20F00100704796
:100B300011F0804F21D113F13872BCBF01F0004099
:100B4000704741F480114FEA5252C2F11802C2F1CB
:100B5000200C10FA0CF320FA02F018BF40F001004C
:100B60004FEAC1234FEAD32303FA0CFC40EA0C00FE
:100B700023FA02F34FEA4303CCE77FEA625307D13B
:100B800050EA01331EBF4FF0FE4040F44000704772
:100B900001F0004040F0FE4040F40000704700BF0C
:100BA00053B94AB9002908BF00281CBF4FF0FF31D4
:100BB0004FF0FF3000F074B9ADF1080C6DE904CED0
:100BC00000F006F8DDF804E0DDE9022304B0704728
:100BD0002DE9F047089E04468846002B4BD18A42F7
:100BE000154667D9B2FA82F24AB1C2F1200701FA7A
:100BF00002F320FA07F7954047EA030894404FEACA
:100C0000154E230CB8FBFEF71FFA85FC0EFB178868
:100C100043EA084307FB0CF1994209D9EB1807F1A5
:100C2000FF3080F01B81994240F21881023F2B4433
:100C30005B1AA4B2B3FBFEF00EFB103344EA03448C
:100C400000FB0CFCA44509D92C1900F1FF3380F0FE
:100C50000781A44540F2048102382C4440EA074051
:100C6000A4EB0C0400271EB1D4400023C6E90043C6
:100C70003946BDE8F0878B4209D9002E00F0EB80A1
:100C80000027C6E9000138463946BDE8F087B3FAC7
:100C900083F7002F47D18B4202D3824200F2FA80C1
:100CA000841A61EB030301209846002EE0D0C6E9C8
:100CB0000048DDE702B9FFDEB2FA82F2002A40F016
:100CC0008F80491B4FEA154E1FFA85F80127B1FBAB
:100CD000FEFC230C0EFB1C1143EA014308FB0CF144
:100CE000994207D9EB180CF1FF3002D2994200F279
:100CF000CD808446591AA3B2B1FBFEF00EFB10144E
:100D000043EA044408FB00F8A04507D92C1900F178
:100D1000FF3302D2A04500F2B6801846A4EB0804C7
:100D200040EA0C409FE7C7F1200CBB4022FA0CFEC2
:100D30004EEA030E01FA07F420FA0CF521FA0CF33F
:100D40004FEA1E482543B3FBF8F92C0C08FB193376
:100D50001FFA8EFA44EA034309FB0AF49C4202FAA2
:100D600007F200FA07F10BD91EEB030309F1FF307C
:100D700080F087809C4240F28480A9F1020973448C
:100D80001B1BADB2B3FBF8F008FB103345EA03447C
:100D900000FB0AFAA24508D91EEB040400F1FF3358
:100DA0006BD2A24569D90238744440EA0940A0FBDD
:100DB0000289A4EB0A044C45C2464B4654D351D099
:100DC000002E69D0B1EB0A0564EB030404FA0CFCB5
:100DD000FD40FC404CEA0505C6E90054002747E702
:100DE000C2F1200320FA03F7954001FA02F021FA3C
:100DF00003F34FEA154E3843010CB3FBFEF71FFA1D
:100E000085F80EFB173341EA034107FB08F38B42D9
:100E100004FA02F407D9691807F1FF3C2FD28B427C
:100E20002DD9023F2944CB1A81B2B3FBFEF00EFB51
:100E3000103341EA034100FB08F38B4207D96918DC
:100E400000F1FF3C17D28B4215D902382944C91A48
:100E500040EA07473BE73746304609E70746E7E6FB
:100E60001846FBE64145ABD2B8EB020A69EB0E022D
:100E700001381346A4E76046E9E7184695E7674658
:100E8000D1E781467CE702382C4447E7ACF1020CFD
:100E90002B442FE7384608E73746E9E60000000014
:100EA000704700BF000000000000000000000000CC
:100EB000844641EA000313F003036DD1403A41D365
:100EC00051F8043B40F8043B51F8043B40F8043B24
:100ED00051F8043B40F8043B51F8043B40F8043B14
:100EE00051F8043B40F8043B51F8043B40F8043B04
:100EF00051F8043B40F8043B51F8043B40F8043BF4
:100F000051F8043B40F8043B51F8043B40F8043BE3
:100F100051F8043B40F8043B51F8043B40F8043BD3
:100F200051F8043B40F8043B51F8043B40F8043BC3
:100F300051F8043B40F8043B51F8043B40F8043BB3
:100F4000403ABDD2303211D351F8043B40F8043B53
:100F500051F8043B40F8043B51F8043B40F8043B93
:100F600051F8043B40F8043B103AEDD20C3205D363
:100F700051F8043B40F8043B043AF9D2043208D05B
:100F8000D2071CBF11F8013B00F8013B01D30B88CD
:100F900003806046704700BF082A13D38B078DD0AB
:100FA00010F003038AD0C3F10403D21ADB071CBF7D
:100FB00011F8013B00F8013B80D331F8023B20F8E7
:100FC000023B7BE7043AD9D3013A11F8013B00F820
:100FD000013BF9D20B7803704B7843708B788370A8
:100FE00060467047000000000000000000000000A4
:100FF00090F800F06DE9024520F007016FF0000C59
:1010000010F0070491F820F040F049804FF0000400
:101010006FF00700D1E9002391F840F000F10800DB
:1010200082FA4CF2A4FA8CF283FA4CF3A2FA8CF313
:101030004BBBD1E9022382FA4CF200F10800A4FA7A
:101040008CF283FA4CF3A2FA8CF3E3B9D1E90423CE
:1010500082FA4CF200F10800A4FA8CF283FA4CF305
:10106000A2FA8CF37BB9D1E9062301F1200182FABF
:101070004CF200F10800A4FA8CF283FA4CF3A2FAC5
:101080008CF3002BC6D0002A04BF04301A4612BAD3
:10109000B2FA82F2FDE8024500EBD2007047D1E9D6
:1010A000002304F00305C4F100004FEAC50514F065
:1010B000040F91F840F00CFA05F562EA05021CBF36
:1010C00063EA050362464FF00004A9E70000000050
:1010D00001F0FF01102A2BDB10F0070F08D010F8E9
:1010E000013B013A8B422DD010F0070F42B3F6D1ED
:1010F000F0B441EA012141EA014122F007047FF006
:1011000000070023F0E80256083C85EA010586EA5C
:10111000010685FA47F5A3FA87F586FA47F6A5FA98
:1011200087F68EB9EED1F0BC01F0FF0102F00702A4
:1011300032B110F8013B013A83EA010313B1F8D14F
:101140000020704701387047002D06BF3546033830
:10115000073815F0010F07D1013015F4807F02BF69
:10116000013015F4C03F0130F0BC0138704700BFBA
:101170004FF0FF3C06E000BF4FF0010C02E000BF63
:101180004FF0010C4DF804CD4FEA410C7FEA6C5C46
:101190004FEA430C18BF7FEA6C5C1BD001B050EAE9
:1011A000410C0CBF52EA430C91EA030F02BF90EAD4
:1011B000020F0020704710F1000F91EA030F58BF93
:1011C000994208BF90422CBFD8176FEAE37040F0F5
:1011D000010070474FEA410C7FEA6C5C02D150EA93
:1011E000013C07D14FEA430C7FEA6C5CD6D152EA4E
:1011F000033CD3D05DF8040B704700BF8446104613
:1012000062468C461946634600E000BF01B5FFF711
:10121000B7FF002848BF10F1000F01BD4DF808EDE1
:10122000FFF7F4FF0CBF012000205DF808FB00BFB2
:101230004DF808EDFFF7EAFF34BF012000205DF80C
:1012400008FB00BF4DF808EDFFF7E0FF94BF012059
:1012500000205DF808FB00BF4DF808EDFFF7CEFF5A
:1012600094BF012000205DF808FB00BF4DF808ED99
:10127000FFF7C4FF34BF012000205DF808FB00BF6A
:101280004FEA410C7FEA6C5C02D150EA013C0AD182
:101290004FEA430C7FEA6C5C02D152EA033C02D174
:1012A0004FF0000070474FF0010070470000000051
:1012B0000EB410B50A4C0B4923680B4883B0019358
:1012C00006AB1A46009309F0C3FF019A23689A42BD
:1012D00004D103B0BDE8104003B0704700F048F8F7
:1012E00000080020D0F100083416002000000000A3
:1012F00000B5154B154D1B68154C83B0019303F0D9
:1013000017FA01F0FDF900F02BFD1249124804F024
:1013100097FC01F035F800F01BF900F0F1FB0F4AE3
:101320000F49104801F00CF900F052FF4FF47A70A9
:1013300002F026F8032000F09BFF294602462046D3
:10134000FFF7B6FFF2E700BF00080020D0F1000869
:101350003416002020080020EC260020040800207D
:101360000C08002000120020000000000000000017
:1013700000B5084B83B01A680192019A1B689A4223
:1013800005D1054803B05DF804EB01F021BAFFF781
:10139000EFFF00BF00080020B0F1000800000000CF
:1013A00030B5104D81682B680F4A83B001930B68EC
:1013B00023F001030B608168946A03E0936A1B1BAE
:1013C000C72B09D8086810F00100F7D1019A2B68E3
:1013D0009A4204D103B030BD4FF0FF30F6E7FFF77B
:1013E000C7FF00BF00080020C81800200000000050
:1013F000F0B5284D83B02B68019302F049FA01F053
:1014000007FB254B1E69F20715D55A69234C42F09C
:1014100001025A612778BB1F012B2AD90522636874
:1014200022701B680BB120469847042F27D0022F4B
:1014300025D003232370B30710D5174A174C5369DF
:1014400043F0020353612378032B1DD063689B682C
:101450000622227013B101211048984701F000FBC9
:10146000019A2B689A4213D103B0BDE8F04003F013
:101470001FB9019A2B689A420AD103B0F0BD02232A
:101480002370B307EAD5D8E72046FFF789FFDDE7E9
:10149000FFF76EFF00080020000005500C1200202E
:1014A00030B50B4D0B4C2B6883B02046019300F0F8
:1014B00037F8019A2B680848084D094921619A427A
:1014C000C4E9025001D103B030BDFFF751FF00BFA6
:1014D000000800200C1200208CFC000800000550C1
:1014E000165502020000000000000000000000008D
:1014F00000B5074B83B01A680192019A1B689A42A3
:1015000004D103B05DF804EBFFF7CABFFFF730FF6B
:1015100000080020000000000000000000000000A3
:1015200000B5084B83B01A68019201220270019A3B
:101530001B6800219A42416002D103B05DF804FBB0
:10154000FFF716FF00080020000000000000000068
:1015500030B50E4D0E4C2B6883B00193FFF7C8FFDA
:10156000206808B10AF054F94FF496400AF048F99F
:1015700001992A682060B0FA80F35B099142C3F1B7
:10158000000001D103B030BDFFF7F2FE00080020DB
:1015900020120020000000000000000000000000F9
:1015A00070B5274D82B02B680193064601220321B6
:1015B0006E2000F02DFB044630B1019A2B689A4250
:1015C00020463AD102B070BD32464E216E2000F066
:1015D0001FFB04460028F0D1442E07D00246B72155
:1015E0006E2000F015FBB8B10446E6E70122B721F2
:1015F0006E2000F00DFB0028F6D1224603216E205C
:1016000000F006FB0028EFD1032211216E2000F02C
:10161000FFFA78B10446D0E7224603216E2000F09D
:10162000F7FA0028E0D10A2211216E2000F0F0FA2A
:101630000028D9D1034B1E71BFE7FFF799FE00BF09
:10164000000800202412002000000000000000001C
:101650002DE9F04F8FB0DFF80084DDF860C0D8F8D6
:1016600000400D940CF1FF355C1EB3F5207F9DF812
:1016700064909DF868B00C44154400F21282BCF5E9
:10168000F07F00F20E82B1F5207F0E4600F212824A
:10169000B2F5F07F174600F21082A14280F004827A
:1016A000B4F5207F00F20082AA4280F00082B5F5F6
:1016B000F07F00F2FC81B9F1400F824600F0B0816A
:1016C000B9F1800F23D0B9F1200F00F09C810023E5
:1016D000CDE90033BBF1400F2FD0BBF1800F00F0FC
:1016E000CB81BBF1200F00F0B9810023CDE902339B
:1016F000002203216E2000F08BFAA0B30D9AD8F8D7
:1017000000309A4240F0E2810FB0BDE8F08F9A07B6
:1017100040F0D681CC4A8C085900661CA2FB01011E
:10172000A2FB030204EB930406EBD2030093BBF18C
:10173000400F06EBD1030193CFD11CF0010F40F015
:10174000C281C14B7D084FEA4C026F1CA3FB021201
:10175000A3FB0C1307EB9303029307EB920305EB38
:101760005C050393C4E702465B216E2000F050FA4B
:101770000028C3D15046FFF713FF0028BED1024610
:1017800003216E2000F044FA0028B7D1C6F30723E6
:101790001A4608216E20049300F03AFA0028ADD1D1
:1017A000F3B21A4609216E20059300F031FA0028A1
:1017B000A4D1C7F307231A460A216E20069300F02E
:1017C00027FA00289AD1FBB21A460B216E20079304
:1017D00000F01EFA002891D1C4F307231A460C2109
:1017E0006E20089300F014FA002887D1E3B21A465D
:1017F0000D216E20099300F00BFA00287FF47EAFD4
:10180000C5F307231A460E216E200A9300F000FA52
:1018100000287FF473AFEBB21A460F216E200B93B2
:1018200000F0F6F900287FF469AF049A35216E20A4
:1018300000F0EEF900287FF461AF059A36216E20A2
:1018400000F0E6F900287FF459AF089A37216E209E
:1018500000F0DEF900287FF451AF099A38216E209C
:1018600000F0D6F900287FF449AF069A39216E209E
:1018700000F0CEF900287FF441AF079A3A216E209C
:1018800000F0C6F900287FF439AF0A9A3B216E2098
:1018900000F0BEF900287FF431AF0B9A3C216E2096
:1018A00000F0B6F900287FF429AF009B3D21C3F377
:1018B00007226E2000F0ACF900287FF41FAF9DF8DE
:1018C00000203E216E2000F0A3F900287FF416AF1F
:1018D000019B3F21C3F307226E2000F099F90028F5
:1018E0007FF40CAF9DF8042040216E2000F090F9A9
:1018F00000287FF403AF029B4121C3F307226E202F
:1019000000F086F900287FF4F9AE9DF80820422106
:101910006E2000F07DF900287FF4F0AE039B432198
:10192000C3F307226E2000F073F900287FF4E6AEBF
:101930009DF80C2044216E2000F06AF900287FF405
:10194000DDAE012203216E2000F062F900287FF451
:10195000D5AE4A4693216E2000F05AF900287FF454
:10196000CDAE5A4694216E2000F052F900287FF443
:10197000C5AE012203216E2000F04AF900287FF451
:10198000BDAE0134A31B07EE103ADFED307AB8EE9E
:10199000477ABAF1440F77EEC77A00F09980B0EE3B
:1019A000006AF2EE006AE7EE066A77EEA77AB0EE1A
:1019B000667A67EE877ADFED266A87EEA67AFCEE16
:1019C000C77ACDED007A009B9521C3F307226E20E4
:1019D00000F01EF900287FF491AE9DF800209621BA
:1019E0006E2000F015F900287FF488AE194B013500
:1019F000EF1BA41B5F801C8083F804A083F8059074
:101A000083F806B07AE610495A00A1FB030306EBFF
:101A10005303A1FB0212009306EB5203019359E614
:101A2000D9074DD4084A74085900661CA2FB01016D
:101A3000A2FB030204EB530406EB9203009306EBB4
:101A40009103019346E600BFABAAAAAA0000224474
:101A50000000A3442412002000080020244A4FEA7A
:101A60004C03A2FB0C1CA2FB032307EB530307EB65
:101A70005C02029203933BE61CF0030F23D11C4B44
:101A8000BD084FEA4C026F1CA3FB0212A3FB0C1310
:101A900007EBD303029307EBD20305EB9C050393FB
:101AA00026E66FF0070029E66FF0030026E66FF0E8
:101AB000040023E66FF0010020E66FF002001DE64F
:101AC0006FF005001AE66FF0060017E6FFF750FC0E
:101AD000F2EE006A37EE267ADFED066A67EE277AC5
:101AE00087EEA67AFCEEC77ACDED007A6BE700BFF1
:101AF000ABAAAAAA000024440000000000000000D5
:101B000010B5114C86B02368059300F061F80F49B9
:101B10000F4803F0C5FA012200210D4803F010FB25
:101B200020237822CDE901330092A023B422F021B2
:101B30000220FFF78DFD059A23689A4201D106B075
:101B400010BDFFF715FC00BF00080020F0F10008F1
:101B5000D02600200000000000000000000000006F
:101B600070B5164E16483368154D82B005224FF4F5
:101B70008071019307F0F4F920246B6983F480737A
:101B80006B61012001F0FCFB631E13F0FF04F4D134
:101B90004FF4807140F206222983094807F0E0F9EA
:101BA000019A33689A4206D10649074802B0BDE857
:101BB000704003F0BDB8FFF7DBFB00BF000800205A
:101BC0000004024030F2000848230020000000001A
:101BD00000B50C4A0C4B1278196883B0012A0191A8
:101BE000019A1B6804D09A4209D103B05DF804FB46
:101BF0009A4204D103B05DF804EBFFF7B1BFFFF7E1
:101C0000B7FB00BF482300200008002000000000B0
:101C1000F0B5214C214E89B0336807930746002563
:101C200020468DF818108DF819208DF8145003F007
:101C300097F92378012B0CD0042205AB0195029271
:101C400000933946022306AA204603F019F90546F7
:101C500048B9114803F0A4F90020079A33689A4262
:101C600017D109B0F0BD204603F0F2F823780C4AF2
:101C7000052B106004D0084803F092F968B2ECE735
:101C8000204603F09DF82378012BF4D1FFF768FF7D
:101C9000F1E7FFF76DFB00BF48230020000800209C
:101CA0002C120020000000000000000000000000D6
:101CB0002DE9F043254E83B034680194042A9DF841
:101CC0002890144605460F46984639D9B9F1000FB9
:101CD00014BF00224FF08052640002EB0863013C05
:101CE0001C4405F00F0527F01F07202383F31188FC
:101CF00001F006FE3D4300F00BFE154B1035DD6094
:101D00001C6100F025FE01F013FE124B1A689A4286
:101D100004D0996993688A689A420DD3002383F3AB
:101D20001188BFF36F8FBFF34F8F019A33689A42C8
:101D30000AD103B0BDE8F083074800F049FDEDE7A4
:101D4000064800F045FDC1E7FFF712FB0008002040
:101D500090ED00E0C8180020C0F20008A0F20008D2
:101D600030B5224D224C2B68224A85B0039363681C
:101D700043F004036360536A43F4803353622023C7
:101D800083F3118801F0BCFD00F0C2FD17221A4B4D
:101D9000E260236100F0DCFD01F0CAFD174B1A6818
:101DA0009A4204D0996993688A689A4218D30020AD
:101DB00080F31188BFF36F8FBFF34F8F03231D2272
:101DC00000904FF00051FFF773FF094A536843F04A
:101DD00001035360039A2B689A4205D105B030BDC8
:101DE000074800F0F5FCE2E7FFF7C2FA0008002020
:101DF00090ED00E000ED00E009000010C8180020A0
:101E0000C0F2000800000000000000000000000018
:101E100070B51A4D1A4C1B4E0FCD0FC49EB02A68D8
:101E2000336822801D93EFF30981682203A8FFF72E
:101E30003FF8154B9D6AAA0714D4EB0708D5124B3F
:101E400008995B6B114A00910D48802109F0F8FF59
:101E50001D9A33689A420FD109481EB0BDE8704000
:101E600000F0B6BC099A5B6B0092A4F11000084A1E
:101E7000802109F0E5FFE0E7FFF77AFA84F2000835
:101E8000301200200008002000ED00E060F20008A1
:101E900040F2000800000000000000000000000008
:101EA0000A490B4B09680B4A82B02020019140215E
:101EB00058834FF4806559834FF400644FF4804099
:101EC00004215D835C8358835183FEE70008002072
:101ED000000C02400004024000000000000000006E
:101EE00010B51E491E4A0B78106882B0013B019064
:101EF000072B0AD8DFE803F012151C1F26290F0450
:101F000018480824012304830B700199136899422F
:101F100021D102B010BD08230B70F6E702230B702D
:101F2000F3E711484FF48054032304830B70ECE76C
:101F300004230B70E9E70C484FF480440523048325
:101F40000B70E2E706230B70DFE706480424072343
:101F500004830B70D9E7FFF70BFA00BF301600209F
:101F600000080020001002400004024000000000B1
:101F700030B50C4B0C4918680C4A83B04FF48045BF
:101F800001904FF480504883042408204D835483EB
:101F90005083019A1B689A4201D103B030BDFFF70C
:101FA000E7F900BF000800200004024000100240D2
:101FB0002DE9F04F4E4B4F4A9B694F499961A5B0AF
:101FC00007AE05AD80231768009331462A460024EA
:101FD0000CA84A4B2397CDE90766CDE90555CDE915
:101FE00009440B9400F0C4FA0CA9454A4548434CF7
:101FF000454DDFF83481DFF834B1DFF834A100F06B
:10200000DFFA04F11C0604F16007A146504601F016
:1020100017FD2A682B69226063602A6A2B6BA26015
:10202000E3606A686B69226163616A6A6B6BA261D3
:10203000E361AA68AB6922626362AA6AAB6BA262BF
:10204000E362EA68EB6922636363EA6AEB6B2F4938
:10205000A263E36351F8043F0A6AB142A3EB0203AF
:102060000B64F7D1802249460CA800F0D9FA98F801
:102070000030002BCAD09BF8003033B3012BC5D100
:10208000DFF8B0C02248614650F8042B51F8043FF5
:10209000B84213440B60F7D11E4A13780133DBB208
:1020A000642B1370B2D11C495CF8043F1B4A82FBBD
:1020B0000302DB17C3EB621341F8043B184B9C454A
:1020C000F2D1002388F80030A0E7194620221248F8
:1020D000039309F065FE039B12481946202209F07C
:1020E0005FFE0C49039B0B7001228BF800208DE7EB
:1020F000C818002000080020D0F200083413002087
:1021000010F3000800120020D0120020301300202D
:102110007413002011130020941300201F85EB512D
:10212000301300201413002010130020121300207D
:102130002C08002010130020000000000000000008
:1021400070B502691E4D52882B6882B006460C4657
:102150001C4801939200002109F022FE33695B883C
:102160005BB1184AA11E002331F8020F42F8040B9C
:102170003069408801339842F6D8202383F31188D0
:1021800001F0EEFB00F004FC00F092FC0E488368C6
:10219000002B0FDD00F01CFC01F0FAFB002383F3A1
:1021A0001188019A2B68094901209A42087004D1CC
:1021B00002B070BD01F07CFCECE7FFF7D9F800BF7E
:1021C00000080020D01200202C080020301600202B
:1021D00070B51F4D1F4C2E78236884B0012E0393D9
:1021E00005D0039A23689A422FD104B070BD002114
:1021F000284602F0B5FB284602F072FC334628461A
:10220000154A164902F02CFC1549164802F048FF01
:102210004FF496720021134802F092FF00211148FA
:1022200003F026F80F4802F0DBFF31464FF48272CC
:102230000C4802F085FF0023009340220A4B0B4814
:102240004FF41E7101F044F8CBE7FFF791F800BF9F
:102250002420002000080020B0120020E0F2000836
:1022600020F300087C260020B11F0008B8130020CE
:1022700010B50E4A82B013680193072811D80C4993
:1022800000F1180300F1100451F8233051F8240034
:10229000C01A20EAE07001991368994203D102B094
:1022A00010BD0020F7E7FFF763F800BF000800202B
:1022B00034130020000000000000000000000000B7
:1022C00000B50F4B83B01868019002290CD0032988
:1022D0000CD001290B4818BF0020019A1B689A42B4
:1022E0000BD103B05DF804FB0748F6E7032A96BF5D
:1022F0000648002000EBC200EFE7FFF739F800BF07
:102300000008002040F40008E0F30008F0F40008A2
:1023100070B5154C82B02368019302291CD10D467B
:102320000646202383F3118801F01AFB00F030FBEE
:1023300030460E4A012104F023F929460C4A304662
:1023400004F01EF90B4803F01BFF00F041FB01F005
:102350001FFB002383F31188019A23689A4201D15D
:1023600002B070BDFFF704F80008002060F3000819
:1023700090F3000834160020000000000000000068
:1023800030B5134D134C2B68134883B0019303F001
:102390006FFE1249104803F09BFE226D936B23F4ED
:1023A000002393634FF47A7000F0EAFF20460C4953
:1023B00004F096F8226D936B43F400239363019A23
:1023C0002B689A4201D103B030BDFEF7D1FF00BFA8
:1023D000000800208823002034160020C0F30008E5
:1023E000D0F3000800000000000000000000000022
:1023F00000B5084B83B01A680192019A1B689A4293
:1024000005D1054803B05DF804EB01F079BCFEF797
:10241000AFFF00BF000800203808002000000000C7
:1024200000B5084B83B01A680192019A1B689A4262
:1024300005D1054803B05DF804EB01F099BCFEF747
:1024400097FF00BF000800203808002000000000AF
:1024500070B50D4C82B0236801930D1E06460DDD4C
:10246000284602F09DF818B90C2333604FF0FF3076
:10247000019A23689A4205D102B070BD034800F06A
:10248000A7F9EDE7FEF774FF0008002010F500083B
:1024900000B5064B83B01A680192019A1B689A42F4
:1024A00002D103B05DF804FBFEF762FF00080020D4
:1024B00000B5074B83B01A680192019A1B689A42D3
:1024C00004D103B05DF804EB01F01ABCFEF750FF35
:1024D00000080020000000000000000000000000D4
:1024E00000B5074B83B01A680192019A1B689A42A3
:1024F00004D103B05DF804EB01F03ABCFEF738FFFD
:1025000000080020000000000000000000000000A3
:1025100000B5074B83B01A680192019A1B689A4272
:1025200004D103B05DF804EB01F0D2BCFEF720FF4C
:102530000008002000000000000000000000000073
:1025400010B5084B82B01C68019400240460019C03
:102550001B689C42C0E9011201D102B010BDFEF718
:1025600007FF00BF0008002000000000000000007E
:102570002DE9F0430E4D83B02C6801940446994632
:102580000F46164610304C220021DDF8288009F055
:1025900007FCC4F80090019A2B68E6609A42C4E9EF
:1025A000018702D103B0BDE8F083FEF7E1FE00BF72
:1025B00000080020000000000000000000000000F3
:1025C000F0B5144E83B001F1100317463268019242
:1025D0000446412218460D46002109F0E1FB394628
:1025E000402209F075FC6068FFF762FF236803B1C1
:1025F000AB652560A068FFF78BFF019A33689A42AC
:1026000005D1606803B0BDE8F040FFF769BFFEF791
:10261000AFFE00BF00080020000000000000000026
:10262000F0B51C4E436883B0054693423068019074
:1026300006D20020019A33689A4229D103B0F0BD36
:1026400014460F46A868FFF733FF2246394628682C
:10265000FEF72EFC012385F85130E868FFF758FF9C
:102660006C6D84B123681868FFF722FF23689D60B2
:1026700023685868FFF74CFF23681868FFF730FF9E
:102680006468002CEED1A868FFF72AFF0120D1E78B
:10269000FEF76EFE000800200000000000000000B1
:1026A00000B5064B83B01A680192019A1B689A42E2
:1026B00002D103B05DF804FBFEF75AFE00080020CB
:1026C000024B82B01B680193FEE700BF00080020A8
:1026D00000B5044B04481B6883B0019300F078F800
:1026E000FEE700BF0008002020F500080000000001
:1026F000024B82B01B680193FEE700BF0008002078
:10270000F0B5294E294B3268294885B00024039240
:102710009C60D968274A4FF6FF0529400A43DA60D2
:10272000C2682549254D42F08072C2600A6842F0B5
:1027300001020A6010202022D87783F8222000F0BE
:10274000DFFA00F045FA01F02BF801F001FF01F08B
:102750006FFF01F07DF800F0FBF9402105F588607E
:1027600000F01EFD0127164BC36180F82070A861A0
:1027700000F0A6F884F3118862B6AB69114A9A6139
:102780004FF4C4713A46104B009405F59D6000F07B
:102790009FFD039A33680D4981619A4201D105B0CA
:1027A000F0BDFEF7E5FD00BF0008002000ED00E0F1
:1027B000F0ED00E00003FA05001000E0C81800206A
:1027C00000040020C0F60008F126000840F50008CB
:1027D00000B5054B83B01B680193044672B6FFF742
:1027E0005FFB024BDC62FEE700080020C8180020F7
:1027F0002DE9F047DFF890A0224DDAF8003082B0E2
:10280000019300F055F9AB6993F8232012B1013A16
:1028100083F823205A6ADFF8748001325A6200F08C
:1028200047F9AB6AEA6901334245AB6220D093684D
:10283000013B9360EC69A668D6B94FF02009236884
:10284000E768E660C3F804802368EB6100F0C0F835
:1028500001F09EF886F311882069B84789F3118842
:1028600001F07EF800F094F8EC69A368002BE6D044
:10287000019ADAF800309A4202D102B0BDE8F0873E
:10288000FEF776FDC818002000080020E41800209C
:1028900010B5094C094A236882B001935168536806
:1028A0005B1A9842FBD8019A23689A4201D102B080
:1028B00010BDFEF75DFD00BF00080020001000E025
:1028C00000B50E4A0E4B116B186883B0019009B920
:1028D000526B4AB1019A1B689A420CD1094803B065
:1028E0005DF804EBFFF774BF019A1B689A4202D1AE
:1028F00003B05DF804FBFEF73BFD00BFC8180020E5
:102900000008002050F50008000000000000000052
:1029100030B50B4C0B4D236B2A6883B001920BB979
:10292000636B13B10848FFF753FF019A2B6801212D
:102930009A42616301D103B030BDFEF719FD00BFBB
:10294000C81800200008002080F5000800000000E2
:1029500030B50C4C0C4D236B2A6883B0019253B9EF
:10296000636B002B07DD019A2B6800219A4261639B
:1029700005D103B030BD0548FFF72AFFF3E7FEF7A6
:10298000F7FC00BFC818002000080020A0F50008D0
:1029900030B50B4C0B4D236B2A6883B0002B019292
:1029A00001DD636B13B10848FFF712FF019A2B6832
:1029B00001219A42616301D103B030BDFEF7D8FC1A
:1029C000C81800200008002090F500080000000052
:1029D00030B50C4C0C4D236B2A6883B0002B019250
:1029E0000ADD636B002B07DD019A2B6800219A42F8
:1029F000616305D103B030BD0448FFF7E9FEF3E79A
:102A0000FEF7B6FCC818002000080020B0F500084A
:102A100030B50F4D83B02B680193202383F31188C9
:102A20000C4C236B002B01DB626B1AB10A48FFF7D9
:102A3000CFFE236B01332363002383F31188019AB4
:102A40002B689A4201D103B030BDFEF791FC00BF64
:102A500000080020C818002060F5000800000000F1
:102A600030B50F4D83B02B680193202383F3118879
:102A70000C4C236B002B01DD626B1AB10A48FFF787
:102A8000A7FE236B013B2363002383F31188019A84
:102A90002B689A4201D103B030BDFEF769FC00BF3C
:102AA00000080020C818002070F500080000000091
:102AB00000B50F4A0F4B116B186883B000290190C5
:102AC00009DB526B002A06DD019A1B689A420CD181
:102AD00003B05DF804FB019A1B689A4205D10648D1
:102AE00003B05DF804EBFFF773BEFEF741FC00BFD7
:102AF000C818002000080020C0F5000800000000F1
:102B000000B50E4A0E4B116B186883B0019049B99D
:102B1000526B002A06DD019A1B689A420CD103B061
:102B20005DF804FB019A1B689A4205D1054803B081
:102B30005DF804EBFFF74CBEFEF71AFCC818002046
:102B400000080020D0F50008000000000000000090
:102B500010B5084A084B116882B0402401910199D0
:102B6000126818199142C3E90E4001D102B010BD9C
:102B7000FEF7FEFB00080020C8180020000000003F
:102B800010B51149114B0A6882B00192DA6B9C6A48
:102B90001460DA6B9C695460DA6B846A9460DA6B57
:102BA00090F820001073DA6B03F5886010328242CF
:102BB00028BF03F14002DA63019A0B689A4201D1FF
:102BC00002B010BDFEF7D4FB00080020C81800209A
:102BD00010B50B4A0B4B116882B04FF0FF340191D6
:102BE00000219962019811685C6203F11C0288421D
:102BF000C3E9072201D102B010BDFEF7B9FB00BF47
:102C000000080020C818002000000000000000009C
:102C10002DE9F041184E82B00546306801900C460F
:102C200017469846FFF744FF05B3FFB1F4B1C5E975
:102C300003781248C3699A68944204D91B68A41A9D
:102C40009A68A242FAD32B605A686A6015605D6088
:102C5000AC609968019D3268091B95424FF0FF34C2
:102C60009960446206D102B0BDE8F0810448FFF7E4
:102C7000AFFDDCE7FEF77CFB00080020C818002051
:102C8000E0F5000800000000000000000000000067
:102C900030B5164D83B004462B680193FFF708FF4B
:102CA000ECB1E368BBB12268A06893680199034462
:102CB0009360D4E900231A6020682B680C4A656889
:102CC000456099424FF000054FF0FF30E5605062DB
:102CD00009D103B030BD0748FFF77AFDE3E70548A7
:102CE000FFF776FDDDE7FEF743FB00BF000800209D
:102CF000C8180020F0F500080000000000000000E7
:102D000000B50A4A0A4B11681B6083B0002001918C
:102D1000019912685B609142C3E90433986002D163
:102D200003B05DF804FBFEF723FB00BF00080020A2
:102D3000C818002000000000000000000000000093
:102D400030B5164D83B004462B680193FFF7B0FEF3
:102D5000ECB194F82030B3B10F2B14D00022A1684D
:102D60000F4B84F820201B689A688A42FBD22360AC
:102D70005A686260146001992A685C60914220463A
:102D800009D103B030BD0748FFF722FDE6E705484B
:102D9000FFF71EFDDDE7FEF7EBFA00BF000800209D
:102DA000C818002000F60008000000000000000025
:102DB00070B5204D82B02B6801930446202383F325
:102DC000118800F0CDFDFFF7E3FD94F82030072BCC
:102DD00011D8DFE803F0161010230A04100AA66ABF
:102DE000FFF766FEB3680133B360D4E900231A60CD
:102DF000D4E900325A604FF0FF33A3622046FFF758
:102E00009FFFFFF7E5FD00F0C3FD002383F311886A
:102E1000019A2B689A420BD102B070BDA36A0022BE
:102E20001A604FF0FF33A3622046FFF789FFE8E7FF
:102E3000FEF79EFA000800200000000000000000DD
:102E4000F0B5194E194C336883B007460193FFF76C
:102E500057FEA569236885F82070142285F8232081
:102E60001A68226001215460284683F82010A3616B
:102E7000FFF786FE2946A06900F022FDEFF30983E3
:102E8000EA69643B9A4202D90948FFF7A1FC019A1A
:102E900033689A4206D1A069294603B0BDE8F040E4
:102EA000FDF706BAFEF764FA00080020C8180020F3
:102EB00010F6000800000000000000000000000004
:102EC000F0B5154C87B0236805930E460746FFF70B
:102ED00017FE731C18D0114D114AAB693146684674
:102EE000FFF796FE3846FFF7ABFFFFF7E1FD039BC8
:102EF00013B16846FFF7CCFE059A2368A9699A4288
:102F0000886A06D107B0F0BD3846FFF799FF034D38
:102F1000F2E7FEF72DFA00BF00080020C8180020D5
:102F2000B12D0008000000000000000000000000BB
:102F3000F0B51E4D1E4E2B6883B0044601930F461C
:102F4000FFF7DEFDB069A7628368A2689A421DD9C7
:102F5000FFF7F6FE0123074684F82030B461FFF73F
:102F60000FFE3946204600F0ABFCEFF30983FA6907
:102F7000643B9A4214D8019A2B689A4214D139467C
:102F8000204603B0BDE8F040FDF792B9019A2B68E6
:102F90009A4209D1204603B0BDE8F040FFF7D0BE09
:102FA0000448FFF715FCE6E7FEF7E2F90008002009
:102FB000C818002010F60008000000000000000003
:102FC00010B50E490E4B8A69086892F823101C68E8
:102FD0008068926882B0019449B9904234BF002061
:102FE0000120019A1B689A4206D102B010BD90429E
:102FF00094BF00200120F4E7FEF7BAF9C8180020BA
:103000000008002000000000000000000000000098
:1030100070B5184C184E2368A5691A682260546070
:10302000012283F8202082B01422316885F8232001
:103030002846A3610191FFF783FE2846FFF7A0FD14
:103040002946A06900F03CFCEFF30983EA69643B80
:103050009A4202D90948FFF7BBFB019A33689A42AA
:1030600006D1A069294602B0BDE87040FDF720B93D
:10307000FEF77EF9C81800200008002010F60008AE
:1030800070B51C4D1C4E2A68AC6913682B60012179
:1030900082B05D60002082F82010AA613268A168C9
:1030A00084F82000019200E01B689A688A42FBD8ED
:1030B00023605A686260204614605C60FFF760FD20
:1030C0002146A86900F0FCFBEFF30983E269643B49
:1030D0009A4202D90948FFF77BFB019A33689A426A
:1030E00006D1A869214602B0BDE87040FDF7E0B8FE
:1030F000FEF73EF9C81800200008002010F600086E
:1031000010B50F4C82B023680193FFF7F9FCFFF76D
:10311000CFFC0C4B1A689B6992689B689A42019A93
:10312000236803D89A4208D102B010BD9A4204D154
:1031300002B0BDE81040FFF7A3BFFEF719F900BFCA
:1031400000080020C8180020000000000000000057
:1031500000B50E4A0E4B9269196892F8232083B08D
:10316000019142B1019A1B689A420DD103B05DF8FA
:1031700004EBFFF785BF019A1B689A4204D103B0A4
:103180005DF804EBFFF744BFFEF7F2F8C818002023
:103190000008002000000000000000000000000007
:1031A000F0B51A4A1A4D02610446816083B01423B7
:1031B00050692E68616484F82330022700230121BE
:1031C000278484F82210C4E90F3304F16801A36155
:1031D000019604F12C07636204F1500604F13003F8
:1031E00060610461C4E90C33E1613046E762546117
:1031F00000F06EFA304600F08BFA019A2B689A4282
:1032000002D1204603B0F0BDFEF7B2F8C818002086
:103210000008002000000000000000000000000086
:1032200010B5094B82B01C680194884203D200F8A3
:10323000012B8142FBD1019A1B689A4201D102B055
:1032400010BDFEF795F800BF000800200000000048
:103250002DE9F043184E83B0346801940546DDF83B
:1032600028900C4617469846FFF722FC15B1B4F596
:10327000BC7F19D21148FFF7ABFAA4F164012944CD
:10328000E960C1F84080EB68019AC3F84490336864
:10329000E9680B4808669A420CD13946284603B0C3
:1032A000BDE8F043FFF77CBF7F2FE3D8B8F1000FF4
:1032B000E3D1DFE7FEF75CF80008002060F60008C5
:1032C000C90200080000000000000000000000002B
:1032D0002DE9F04FDFF8A48087B0D8F80040DDF882
:1032E0004090059407468A46934600F168060446D6
:1032F000FF2504F8015BA642FBD107EB0A05A542B6
:1033000004D9552604F8016BA542FBD10393202272
:1033100082F3118800F0F4FAFFF7FAFA039BCDF874
:1033200000905A4651463846FFF792FF0021044666
:10333000FFF7FEFDFFF70CFB00F0FAFA0D4B1A68E1
:103340009A4204D0996993688A689A420BD3002301
:1033500083F31188059AD8F800309A42204606D1A6
:1033600007B0BDE8F08F0448FFF732FAEFE7FDF74A
:10337000FFFF00BFC818002020F60008000800204A
:1033800030B5184C83B0236801930546202383F39E
:10339000118800F0B5FAFFF7BBFA15B91248FFF72C
:1033A00017FA29460820FFF78BFDFFF7D1FA00F046
:1033B000BFFA0E4B1A689A4204D0996993688A68DA
:1033C0009A4208D3002383F31188019A23689A4212
:1033D00005D103B030BD0648FFF7FAF9F2E7FDF773
:1033E000C7FF00BF0008002030F60008C818002002
:1033F00020F60008000000000000000000000000AF
:1034000070B5164B164E9C693268E36AA06282B0B2
:1034100004F12C05AB42019207D01A68E26218460B
:10342000FFF78EFCE36AAB42F7D194F821309B079B
:1034300005D1D4E904231A61D4E904325A610F207A
:10344000FFF7FEFC019A33689A4205D1054802B0A5
:10345000BDE87040FFF7BCB9FDF78AFFC81800202F
:103460000008002070F600080000000000000000C6
:1034700030B50C4C83B0236801930546202383F3B9
:10348000118800F03DFAFFF743FA019A23689A4247
:1034900005D1284603B0BDE83040FFF7B1BFFDF7C6
:1034A00067FF00BF000800200000000000000000CF
:1034B000F0B50D4D0D4E03682A68B76983B0044618
:1034C000019213B10A48FFF783F927600320BC6219
:1034D000FFF7B6FC019A2B68B1699A42886A01D15C
:1034E00003B0F0BDFDF744FF00080020C81800201D
:1034F00080F600080000000000000000000000004E
:10350000F0B5124D0368124A83B004462868019052
:103510000E46976913B10F48FFF75AF966B1276055
:10352000019A2B68BC629A420ED13146032003B047
:10353000BDE8F040FFF7C4BC019A2B689A424FF0F7
:10354000FF3001D103B0F0BDFDF712FF00080020ED
:10355000C818002090F600080000000000000000DD
:10356000F0B5124D04682B6883B00193B4B194F8A0
:103570002030032B06460F460CD100233360019AFE
:103580002B68A7629A420FD1204603B0BDE8F040F5
:10359000FFF7D6BB0648FFF71BF9EEE7019A2B6849
:1035A0009A4201D103B0F0BDFDF7E2FE0008002011
:1035B000B0F600080000000000000000000000005D
:1035C00030B5104A83B01368019381B10E4B019D51
:1035D0009B69186044685C60236012684360954290
:1035E0000DD1042003B0BDE83040FFF769BC01995C
:1035F000136899424FF0FF3001D103B030BDFDF7A1
:10360000B7FE00BF00080020C8180020000000001E
:1036100070B5124D04682B6882B0A042019315D09A
:1036200023680360586094F82030042B0E4602D0C3
:103630000B48FFF7CDF8019A2B68A6629A420BD18E
:10364000204602B0BDE87040FFF77ABB019A2B68B4
:103650009A4201D102B070BDFDF78AFE0008002039
:1036600040F600080000000000000000000000001C
:103670002DE9F041DFF850800468D8F8003082B0BE
:10368000A042019313D00F4F05460E4623682B60CE
:103690005D6094F82030042B02D03846FFF798F88C
:1036A000A6622046FFF74CFB2C68A542EED1019A9A
:1036B000D8F800309A4202D102B0BDE8F081FDF79F
:1036C00057FE00BF40F60008000800200000000080
:1036D00030B50B4B83B01A6801924FF0FF32026095
:1036E00001991A680024002300259142C0E904458D
:1036F000C0E90133C36001D103B030BDFDF738FE2E
:103700000008002000000000000000000000000091
:1037100000B5084B084A196883B001915168019AB5
:103720001B6881609A4202D103B05DF804FBFDF78B
:103730001FFE00BF00080020001000E00000000095
:10374000F0B51449144B0A68846883B00192134A97
:103750005B68D2F8A864C2681B1BD0E9044501323B
:103760009B1BC26042688360E61845F100079342E4
:10377000C0E9046709D80268934238BF0360019A20
:103780000B689A4203D103B0F0BD4360F7E7FDF741
:10379000EFFD00BF00080020001000E0C818002066
:1037A00030B5114D114C2B6889B04FF0FF310793A4
:1037B000002300226846C4F8A834CDE901330393FE
:1037C0000023CDE904230091FFF7A2FF6846FFF72D
:1037D000B7FF079A2B680299C4F8A8149A4201D13E
:1037E00009B030BDFDF7C4FD00080020C818002056
:1037F0002DE97048134E144B326883B001925B6818
:103800008B60D0E902411B1BD0E90445426814EBF0
:10381000030B45F1000C01319342C0E90231C0E9CC
:1038200004BC0AD80268934238BF0360019A336827
:103830009A4204D103B0BDE870884360F6E7FDF713
:1038400097FD00BF00080020001000E0000000000D
:1038500030B50D4D0D4C2B6883B004F59760019386
:103860000023C4F8B034C4F8B434FFF731FF019A30
:103870002B689A4206D104F59A6003B0BDE8304047
:10388000FFF726BFFDF774FD00080020C8180020D0
:1038900000B50949094A0B6883B001930198D2F831
:1038A000B034096801338842C2F8B03402D103B0A1
:1038B0005DF804FBFDF75CFD00080020C81800203F
:1038C00070B50D4C0D4A236882B00193019DD2F86A
:1038D000B43424680133A542C2F8B43409D10E4689
:1038E00000F1500106F1500002B0BDE87040FFF752
:1038F0007FBFFDF73DFD00BF00080020C818002075
:1039000000B5084B83B01A680192019A1B689A426D
:1039100005D1054803B05DF804EBFFF7F9BEFDF7EC
:1039200027FD00BF00080020801D002000000000CF
:1039300000B5084B83B01A680192019A1B689A423D
:1039400005D1054803B05DF804EBFFF7F9BEFDF7BC
:103950000FFD00BF00080020801D002000000000B7
:1039600000B5084B83B01A680192019A1B689A420D
:1039700005D1054803B05DF804EBFFF7C9BEFDF7BC
:10398000F7FC00BF00080020981D00200000000088
:1039900000B5084B83B01A680192019A1B689A42DD
:1039A00005D1054803B05DF804EBFFF7C9BEFDF78C
:1039B000DFFC00BF00080020981D00200000000070
:1039C00070B51B4D82B004462B680193FFF798F841
:1039D00044B3A3682268002B10DBA24203D0154831
:1039E000FEF7F6FEA368013B002BA3600CDB002072
:1039F000019A2B689A4219D102B070BDA242EED052
:103A0000013B002BA360F2DA0B4EB3699C621C6091
:103A100062685A60052013606360FFF711FAB369AA
:103A2000986AE5E70348FEF7D3FED2E7FDF7A0FC6E
:103A300000080020F0F60008C81800200000000070
:103A400030B5164C83B0236801930546202383F3D9
:103A50001188FFF755FFFEF75BFF2846FFF7B0FF21
:103A60000546FEF775FFFFF763FF0D4B1A689A4294
:103A700004D0996993688A689A4209D3002383F332
:103A80001188019A23689A42284605D103B030BDB7
:103A90000448FEF79DFEF1E7FDF76AFC00080020F0
:103AA000C8180020E0F60008000000000000000038
:103AB00030B51C4D83B004462B680193FEF7F8FF28
:103AC0004CB3A3682268002B0FDBA24203D0164838
:103AD000FEF77EFEA3680133002BA3600BDD019A85
:103AE0002B689A421BD103B030BDA242EFD0013304
:103AF000002BA360F3DC20680199036823602A6827
:103B00005C6091424FF00003836208D103B0BDE8CE
:103B10003040FFF715B90448FEF75AFED1E7FDF72C
:103B200027FC00BF0008002000F70008000000008C
:103B300030B50B4D83B02B680193044650B124601F
:103B400001992A68646000239142A360236105D132
:103B500003B030BD0348FEF73BFEF0E7FDF708FC7D
:103B60000008002020F7000800000000000000000E
:103B7000F0B55D4E5D4B32689D6983B0044601929D
:103B8000FEF7BEFF002C00F08480A06823690028A7
:103B900043D0002B40F39780854276D0AA68836893
:103BA0009A4208D990F820308260062B40D0072B2B
:103BB00073D0002B5DD02746234603E09968AA689E
:103BC000914233D31B689C42F8D12F607B686B60B5
:103BD00006201D607D60AC62FFF732F9A368AB423E
:103BE00002D04348FEF7F4FD2B6CA34202D04048BC
:103BF000FEF7EEFD2369012B05D1019A33689A4245
:103C00006FD103B0F0BD019A33689A4269D1384848
:103C100003B0BDE8F040FEF7DBBD002B58D1013307
:103C2000A56023612B6CE3602C64E6E71F46CCE7BC
:103C3000D0E900231A60D0E900325A60876A3B4617
:103C400003E099688268914247D31B689F42F8D18C
:103C500007607B68436018607860836AAA68986828
:103C600083689342A7D290F820308260062B9ED1C1
:103C7000DEE7D0E90023012180F820101A60D0E9A6
:103C800000325A60FFF75CF895E72369013323613E
:103C9000B3E71748FEF79CFD77E7D0E900231A60E9
:103CA000D0E900325A60876A3B4603E0996882682F
:103CB000914214D31B689F42F8D107607B68436030
:103CC0001860786077E70A48FEF782FDA06863E72E
:103CD0000748FEF77DFD2369A1E71F46B8E71F46A9
:103CE000EBE7FDF745FB00BF00080020C8180020E7
:103CF00030F7000800000000000000000000000095
:103D000030B5154C83B0236801930546202383F317
:103D10001188FFF7F5FDFEF7FBFD2846FFF728FFAA
:103D2000FEF716FEFFF704FE0C4B1A689A4204D009
:103D3000996993688A689A4208D3002383F31188AB
:103D4000019A23689A4205D103B030BD0448FEF7BA
:103D50003FFDF2E7FDF70CFB00080020C81800202B
:103D600010F7000800000000000000000000000044
:103D70002DE9F043DFF800813C4FD8F80030BE69F0
:103D800083B005460193002864D0202383F3118873
:103D9000FFF7B6FDFEF7BCFD336C002B5ED09B68D1
:103DA000B34202D03248FEF713FD2B69002B49DDE8
:103DB000013B2B615BBB336CAB4202D02C48FEF75E
:103DC00007FDEB683364FEF79BFE2B689D423ED0F7
:103DD000D6E910495CB1FEF793FE23689C4203D0FC
:103DE0009B68994538BF9946E468002CF3D1C6F822
:103DF00008902B6801222A611A682A605560AB601E
:103E00001A6CEA6018461D640021FFF791F8FEF76E
:103E10009FFDFFF78DFD3B68BB4204D0BA699B68EC
:103E200092689A420AD3002383F31188019AD8F842
:103E300000309A4217D103B0BDE8F0830D48FEF779
:103E4000C7FCF0E70A48FEF7C3FC2B69B0E7002384
:103E5000AB60DCE70648FEF7BBFC96E70448FEF7DC
:103E6000B7FC336C9BE7FDF783FA00BFC81800204E
:103E700040F7000810F700080008002000000000CC
:103E800070B5114E82B0044633680193FEF710FE00
:103E90009CB12068A0420AD06FF00105036823603E
:103EA0005C60FEF74DFF85622068A042F6D1019A62
:103EB00033689A4205D102B070BD0448FEF788FC11
:103EC000E7E7FDF755FA00BF0008002060F700089B
:103ED00030B5164C83B0236801930546202383F345
:103EE0001188FFF70DFDFEF713FD2846FFF7C8FF09
:103EF000FFF706F9FEF72CFDFFF71AFD0C4B1A68C9
:103F00009A4204D0996993688A689A4208D3002338
:103F100083F31188019A23689A4205D103B030BD1A
:103F20000448FEF755FCF2E7FDF722FA00080020EE
:103F3000C818002050F70008000000000000000032
:103F400070B5184E82B00446336801930D46FEF7F3
:103F5000AFFD0CB3E16B94F8203029430A2BE163E9
:103F600016D00B2B05D0019A33689A4218D102B0B3
:103F700070BDA36A8B43F6D1019A336800219A423F
:103F8000A1620DD1204602B0BDE87040FEF7D8BE58
:103F9000A36A1942F0D1E6E70348FEF719FCD9E716
:103FA000FDF7E6F900080020A0F700080000000077
:103FB000F0B5134F83B006463B6801930D46FEF7FC
:103FC00077FDB6B13468A6420DD0E3682B43E360B9
:103FD00015B12269134203D0D4E90101FFF7B0FF04
:103FE0002468A642F1D1019A3B689A4205D103B0F8
:103FF000F0BD0448FEF7ECFBE4E7FDF7B9F900BFBC
:104000000008002080F70008000000000000000009
:1040100070B50C4CC16082B0266801960A440060FD
:10402000019E02612268069D4060C0E9051196422A
:104030004FF00001C3618160056201D102B070BD23
:10404000FDF796F9000800200000000000000000C5
:1040500030B50D4D83B02B6801930446FEF728FD63
:1040600001992A68E368A36100209142A06063611E
:1040700007D120466FF0010103B0BDE83040FFF7E3
:10408000F7BAFDF775F900BF000800200000000036
:1040900070B5164D82B004462B6801930E46FEF7AC
:1040A00007FDFEF705FDD4E905239A42A36816D063
:1040B0000133511CA36061611670D4E904329A4245
:1040C0000AD220460021FFF7A3FA0020019A2B68AC
:1040D0009A4209D102B070BDE3686361F1E7002B39
:1040E000E6D06FF00300F1E7FDF742F90008002089
:1040F000F0B5234F83B03B68019304460E4620235E
:1041000083F31188FFF7FCFBFEF702FCE36943B180
:104110002046984705E031462046FFF751FA051E34
:1041200010DBFEF7C5FCA368002BF4D0A169206961
:104130004A1C013B8242A360A26128BFE3680D785C
:1041400028BFA361FEF704FCFFF7F2FB0D4B1A68D2
:104150009A4204D0996993688A689A4209D30023E5
:1041600083F31188019A3B689A42284605D103B02F
:10417000F0BD0548FEF72CFBF1E7FDF7F9F800BFAD
:1041800000080020C8180020B0F700080000000058
:104190002DE9F04FDFF8F490044685B0D9F800001F
:1041A00003908A461D46D4F81C809346002A60D0AE
:1041B000202383F311880193FFF7A2FBFEF7A8FBEE
:1041C0002F4E0027B8F1000F07D02046C04704E06B
:1041D00029462046FFF7F4F960BBFEF769FCA368A7
:1041E000002BF5D0A269013B511CA161A36013789B
:1041F0000AF8013B2369A2699A4224BFE368A361DC
:10420000FEF7A6FBFFF794FB3368B34204D0B26914
:104210009B6892689A4228D3002383F31188013760
:10422000BB4519D0019B83F31188FFF769FBFEF7AB
:104230006FFBC7E7FEF78CFBFFF77AFB3368B342EF
:1042400007D0B2699B6892689A4202D20D48FEF785
:10425000BFFA002383F31188039AD9F800309A42F9
:1042600038460AD105B0BDE8F08F0648FEF7B0FA2F
:10427000D2E70548FEF7ACFA9AE7FDF779F800BFF8
:10428000C8180020B0F70008C0F700080008002098
:1042900070B50B4D82602E68C16082B0C0E900002D
:1042A00001960A44019E02612A68069C9642C0E972
:1042B0000511C0E9073401D102B070BDFDF758F80F
:1042C00000080020000000000000000000000000C6
:1042D00030B50D4D83B004462B680193FEF7E8FB23
:1042E000D4E9032301982968A2619B1A884262617C
:1042F000A36007D120466FF0010103B0BDE8304054
:10430000FFF7B6B9FDF734F8000800200000000000
:104310002DE9F0412E4F82B03B6801930446884658
:104320001646202383F31188FFF7EAFAFEF7F0FA26
:1043300005E031462046FFF743F9051E2DDBFEF769
:10434000B7FBA368002BF4D06269013B511C61618B
:10435000A36082F80080D4E904329A4224BFE36863
:104360006361E3690BB120469847FEF7F1FAFFF766
:10437000DFFA184B1A689A4204D0996993688A68E0
:104380009A421ED3002585F31188019A3B689A4210
:1043900028461AD102B0BDE8F081FEF7D9FAFFF73E
:1043A000C7FA0C4B1A689A4207D0996993688A68D1
:1043B0009A4202D20848FEF70BFA002383F31188D1
:1043C000E3E70548FEF704FADCE7FCF7D1FF00BF9E
:1043D00000080020C8180020B0F700080000000006
:1043E00070B5154E82B0044633680193FEF760FB4A
:1043F000FEF75EFBD4E905329342A36815D020692D
:10440000511C0133A360A161814215780AD2204674
:104410000021FFF7FDF82846019A33689A4209D136
:1044200002B070BDE368A361F1E7002BE7D06FF045
:104430000200F1E7FCF79CFF0008002000000000EC
:104440002DE9F04F04463B48D4F81C90006885B035
:104450000D46039001931646002A61D04FF0200AC2
:104460008AF31188FFF74CFAFEF752FA4FF0000872
:10447000314FC346FEF71CFBA368002B32D06269A4
:10448000013B511C6161A3602B781370D4E90432A5
:104490009A4224BFE36863610135B9F1000F01D08E
:1044A0002046C847FEF754FAFFF742FA3B68BB4282
:1044B00007D0BA699B6892689A4202D21F48FEF7F9
:1044C00087F98BF31188013E08F101081FD08AF3A8
:1044D0001188FFF715FAFEF71BFAFEF7E9FAA36851
:1044E000002BCCD101992046FFF76AF80028C1D0F3
:1044F000FEF72EFAFFF71CFA3B68BB4204D0BA69FC
:104500009B6892689A420FD3002383F31188094B6A
:10451000039A1B689A4240460AD105B0BDE8F08F65
:104520000748FEF755F999E70448FEF751F9EBE71C
:10453000FCF71EFF00080020C8180020B0F7000894
:10454000D0F700080000000000000000000000009C
:1045500030B50B490B4A0B680B4D0C4C83B022F065
:104560000702019301980A4B09682A6023F00703A8
:104570008842236001D103B030BDFCF7F9FE00BFD3
:10458000000800209F2700203C1F0020381F00202B
:1045900000000220000000000000000000000000F9
:1045A00070B51C4E82B0336801930446202383F318
:1045B0001188FFF7A5F9FEF7ABF9FEF779FA164A6D
:1045C000164B15681B68E01D20F007005B1B984226
:1045D0009ABF401910600025FEF7BAF9FFF7A8F955
:1045E0000F4B1A689A4204D0996993688A689A4274
:1045F00009D3002383F31188019A33689A4228462D
:1046000005D102B070BD0748FEF7E2F8F1E7FCF70C
:10461000AFFE00BF000800203C1F0020381F002014
:10462000C8180020F0F7000800000000000000009B
:1046300000B50B4B0B481A6883B0019201991A68B8
:10464000094B036091424FF00003C0E9023305D1EA
:10465000103003B05DF804EBFFF76ABAFCF788FE90
:1046600000080020401F0020A145000800000000B5
:1046700080B50D4A0D4982B000AF13687B604B686E
:1046800023F001034B60EFF30983683383F3098858
:10469000002383F3118879681368994202D108379F
:1046A000BD4680BDFCF764FE0008002030EF00E04E
:1046B000B0B5194C82B000AF23687B60202383F330
:1046C0001188164B5B6813F4006308D183F31188DB
:1046D0007A6823689A421DD10837BD46B0BDF1EE15
:1046E000103AEFF309854FF080720D4B45F84C2CD2
:1046F000DB6845F8083CA5F1680383F30988FEF7F9
:104700005FFC18B1074B45F8503CE1E7064B45F814
:10471000503CDDE7FCF72CFE0008002000ED00E037
:1047200030EF00E0E1020008F402000800000000A1
:1047300010B5184C82B02368019302F091FE164820
:1047400004F026FB00F0D4F800F0EAF900F030FAAB
:1047500000F05EFA00F08CFA00F0BAFA00F040FCCB
:1047600000F06EFC01F024FA01F02AF901F038FEA5
:1047700001F07EFE01F06CFC06F05AFD019A236800
:104780009A4204D102B0BDE8104001F059BEFCF7D6
:10479000EFFD00BF0008002070FE000800000000D0
:1047A000F0B51A4D83B02B68019391420E46144622
:1047B000074619D38B1A1F2B16D806F01F03581C57
:1047C0006209012376098340B24203F1FF3304F00A
:1047D0001F0457F822000BD31840E040019A2B68C1
:1047E0009A4210D103B0F0BD0948FDF7F1FFE4E7AC
:1047F00057F82610C4F120020B4020FA04F403FA03
:1048000002F02043EAE7FCF7B3FD00BF00080020F8
:1048100000F8000800000000000000000000000098
:10482000F0B51D4E83B033680193054670B37E2208
:104830007F212846FFF7B4FF80B1012806D0002071
:10484000019A33689A4225D103B0F0BD2846302240
:104850004521FFF7A5FF01308002F1E73E22492103
:104860002846FFF79DFF2F22044631212846FFF7F7
:1048700097FF5022074653212846FFF791FF013446
:1048800002370938BC4004FA00F0D9E70348FDF7C5
:104890009FFFCCE7FCF76CFD0008002020F8000823
:1048A000F0B5104D83B02B680193044698B194F88D
:1048B000D63094F8D770019994F8D4602A6894F8A7
:1048C000D5001B0403EB07633344914203EB002044
:1048D00005D103B0F0BD0448FDF77AFFE7E7FCF728
:1048E00047FD00BF0008002040F80008000000005D
:1048F00000B5074B83B01A680192019A1B689A426F
:1049000004D103B05DF804EB02F06ABEFCF730FDA1
:10491000000800200000000000000000000000006F
:1049200000B50C4B83B01A68019201220270019904
:104930001A6800239142C0E90133C0E9033343619F
:1049400005D1183003B05DF804EBFFF7F1B8FCF7C0
:104950000FFD00BF00080020000000000000000064
:1049600070B51D4D82B02B6801930E46044668B3A6
:10497000202383F31188FEF7C3FFFDF7C9FF2378D7
:10498000013B012B02D91548FDF722FF2046666046
:1049900002F076FE02232370FDF7DAFFFEF7C8FF70
:1049A0000F4B1A689A4204D0996993688A689A42B0
:1049B00008D3002383F31188019A2B689A4209D106
:1049C00002B070BD0748FDF703FFF2E70348FDF7AB
:1049D000FFFECDE7FCF7CCFC0008002070F80008D3
:1049E000C818002060F80008000000000000000067
:1049F0002DE9F041174D82B00446286801900E461B
:104A000090461F46FEF754F83CB136B1B8F1000F9E
:104A100003D0012F04D0FB0702D50F48FDF7D8FEC5
:104A20002378022B05D0043B012B02D90A48FDF75D
:104A3000CFFE03232370019A2B6826619A42C4E9B2
:104A4000028705D1204602B0BDE8F04102F098BED1
:104A5000FCF78EFC0008002080F800080000000031
:104A60002DE9F041184C82B025680195984605461D
:104A70000E461746202383F31188FEF741FFFDF70A
:104A800047FF43463A4631462846FFF7B1FFFDF758
:104A90005FFFFEF74DFF0D4B1A689A4204D09969EB
:104AA00093688A689A4209D3002383F31188019A94
:104AB00023689A4206D102B0BDE8F0810448FDF7B0
:104AC00087FEF1E7FCF754FC00080020C81800201E
:104AD00060F8000800000000000000000000000076
:104AE00030B50B4C83B023680193054650B1019A51
:104AF00023689A420AD105F1180003B0BDE830409E
:104B0000FFF7FEB80348FDF763FEF0E7FCF730FC63
:104B100000080020A0F800080000000000000000CD
:104B200000B5074B83B01A680192019A1B689A423C
:104B300004D103B05DF804EB03F072BCFCF718FC81
:104B4000000800200000000000000000000000003D
:104B500030B5134B83B01A68019201220270019C98
:104B60001968002200F1180300F11C0542608361FE
:104B700000F1200200F12403C561026200F1280562
:104B800000F1080243628C4200F110038562C0E923
:104B90000222C0E9043301D103B030BDFCF7E8FBC9
:104BA00000080020000000000000000000000000DD
:104BB00000B5074B83B01A680192019A1B689A42AC
:104BC00004D103B05DF804EB04F0C2B8FCF7D0FBED
:104BD00000080020000000000000000000000000AD
:104BE00000B50A4B83B01A68019201220270019944
:104BF0001A6800239142C0E9043305D1183003B08C
:104C00005DF804EBFEF794BFFCF7B2FB0008002050
:104C100000B5074B83B01A680192019A1B689A424B
:104C200004D103B05DF804EB03F01ABCFCF7A0FB61
:104C3000000800200000000000000000000000004C
:104C400000B5084B83B01A68019201220270019AE4
:104C50001B6800219A42416002D103B05DF804FB59
:104C6000FCF786FB000800200000000000000000A8
:104C700000B5074B83B01A680192019A1B689A42EB
:104C800004D103B05DF804EB05F07ABEFCF770FBCD
:104C900000080020000000000000000000000000EC
:104CA00000B5084B83B01A68019201220270019A84
:104CB0001B6800219A42416002D103B05DF804FBF9
:104CC000FCF756FB00080020000000000000000078
:104CD00000B5074B83B01A680192019A1B689A428B
:104CE00004D103B05DF804EB04F04ABBFCF740FBD1
:104CF000000800200000000000000000000000008C
:104D000000B50A4B83B01A68019201220270019A21
:104D10001B6800219A42416005D10C3003B05DF858
:104D200004EBFEF705BFFCF723FB00BF00080020E3
:104D300070B51F4D82B02B6801930E46044680B3B8
:104D400079B323785A1E012A04D9052B02D01948B9
:104D5000FDF73EFD202383F31188FEF7D1FDFDF71B
:104D6000D7FD2046666004F033FB02232370FDF775
:104D7000EFFDFEF7DDFD104B1A689A4204D09969E9
:104D800093688A689A4208D3002383F31188019AB2
:104D90002B689A4209D102B070BD0848FDF718FD92
:104DA000F2E70448FDF714FDCBE7FCF7E1FA00BF9A
:104DB00000080020C0F80008C8180020B0F800085B
:104DC00030B51D4D83B02B680193044670B3237832
:104DD0005A1E012A04D9052B02D01848FDF7F8FC09
:104DE000202383F31188FEF78BFDFDF791FD20460C
:104DF00004F02EFC01232370FDF7AAFDFEF798FDB9
:104E00000F4B1A689A4204D0996993688A689A424B
:104E100008D3002383F31188019A2B689A4209D1A1
:104E200003B030BD0748FDF7D3FCF2E70348FDF7B8
:104E3000CFFCCCE7FCF79CFA00080020D0F8000873
:104E4000C8180020B0F800080000000000000000B2
:104E500030B5094D83B02B680193044630B1019AF7
:104E60002B68A0689A4205D103B030BD0348FDF716
:104E7000AFFCF4E7FCF77CFA00080020E0F800083B
:104E80002DE9F04F304E87B034680594DDF840B01E
:104E90000D4690461F46DDE9119A044608B10029E7
:104EA0003DD12A48FDF794FC2378022B02D02748F5
:104EB000FDF78EFC202383F31188FEF721FDFDF71B
:104EC00027FD4FF0000C0320C4F808C042462946D5
:104ED00020703B462046CDE9019ACDF800B004F0A1
:104EE0000FFC431C0CBF0523022323700546FDF76E
:104EF0002FFDFEF71DFD164B1A689A4204D09969E2
:104F000093688A689A4218D3002383F31188059A1C
:104F100033689A42284614D107B0BDE8F08F002BC1
:104F2000BFD0002ABDD0B9F1000F02D0BBF1000FF5
:104F3000B7D0BAF1000FB7D1B3E70648FDF748FC88
:104F4000E2E7FCF715FA00BF00080020F0F80008BF
:104F5000C8180020B0F800080000000000000000A1
:104F600030B50B4C83B023680193054650B1019ACC
:104F700023689A420AD105F10C0003B0BDE8304025
:104F8000FEF7BEBE0348FDF723FCF0E7FCF7F0F99F
:104F90000008002010F900080000000000000000D8
:104FA00030B50B4C83B023680193054650B1019A8C
:104FB00023689A420AD105F10C0003B0BDE83040E5
:104FC000FEF7D6BE0348FDF703FCF0E7FCF7D0F987
:104FD0000008002020F90008000000000000000088
:104FE00000B5074B83B01A680192019A1B689A4278
:104FF00004D103B05DF804EB05F002BCFCF7B8F98E
:105000000008002000000000000000000000000078
:1050100000B5084B83B01A68019201220270019A10
:105020001B6800219A42416002D103B05DF804FB85
:10503000FCF79EF9000800200000000000000000BE
:1050400000B5074B83B01A680192019A1B689A4217
:1050500004D103B05DF804EB05F07ABDFCF788F9E4
:105060000008002000000000000000000000000018
:1050700000B5094B83B01A680192012202700199B0
:105080001A68002391424360C360037402D103B0E5
:105090005DF804FBFCF76CF900080020000000003C
:1050A00070B5214E82B0336801930D460446002846
:1050B00033D0002931D0202383F31188FEF720FC60
:1050C000FDF726FC2378013B012B02D91748FDF799
:1050D0007FFB65606B68A360204605F079FD0022C8
:1050E0000223E2602370FDF733FCFEF721FC104B36
:1050F0001A689A4204D0996993688A689A4208D3D8
:10510000002383F31188019A33689A4209D102B0CF
:1051100070BD0848FDF75CFBF2E70448FDF758FB5B
:10512000C9E7FCF725F900BF0008002040F9000896
:10513000C818002030F9000800000000000000003E
:10514000F0B5214E83B0336801930D4617460446EF
:1051500078B3037C8B422CD9202383F31188FEF78C
:10516000CFFBFDF7D5FB2378022B02D01748FDF7C4
:105170002FFBE3680122AA401343E3603A46294625
:10518000204605F00DFEFDF7E3FBFEF7D1FB104BCB
:105190001A689A4204D0996993688A689A420CD333
:1051A000002383F31188019A33689A4209D103B02E
:1051B000F0BD0648FDF70CFBCEE70648FDF708FBFF
:1051C000EEE7FCF7D5F800BF0008002050F9000812
:1051D000C818002030F9000800000000000000009E
:1051E00030B51E4D83B02B680193044680B3202355
:1051F00083F31188FEF784FBFDF78AFB2378022BEB
:1052000002D01748FDF7E4FA63689B68E3B12046D3
:1052100005F0DEFDFDF79CFBFEF78AFB114B1A68DB
:105220009A4204D0996993688A689A4208D3002305
:1052300083F31188019A2B689A420DD103B030BDD7
:105240000948FDF7C5FAF2E70548FDF7C1FADEE7C0
:105250000348FDF7BDFACAE7FCF78AF8000800200A
:1052600070F90008C818002030F90008000000009C
:1052700070B5294E82B0336801930D46044600286C
:1052800032D0037C8B422FD9202383F31188FEF781
:1052900037FBFDF73DFB2378022B02D01F48FDF7BB
:1052A00097FAE368EB40DB0726D5636803EBC50399
:1052B0001B6953B32946204605F0AAFDFDF748FBBC
:1052C000FEF736FB164B1A689A4204D09969936828
:1052D0008A689A420CD3002383F31188019A3368B9
:1052E0009A4216D102B070BD0C48FDF771FACBE7B7
:1052F0000C48FDF76DFAEEE70848FDF769FA6368B8
:1053000003EBC5031B69002BD4D10448FDF760FAF9
:10531000D0E7FCF72DF800BF0008002090F9000846
:10532000C818002030F9000800000000000000004C
:1053300070B5104D82B02B6801930E46044650B1F3
:1053400049B12379052B0CD00120019A2B689A4290
:105350000ED102B070BD0848FDF73AFA2379052B4B
:10536000F2D1A36A73604FF4007333600020ECE75E
:10537000FBF7FEFF0008002020FA000800000000F4
:105380002DE9F047DFF89C8386B002AFD8F80030F3
:10539000FB600446002800F019812379022B01D01C
:1053A000052B2BD103232371204603F0F1F80022B3
:1053B0001146204603F064F907F108034FF4D57253
:1053C0000821204603F0A4F9E0B9BB680122C3F329
:1053D00003239342226300F0FD80204603F010F97E
:1053E000022323710125FA68D8F800309A42284632
:1053F00040F046811037BD46BDE8F087C048FDF754
:10540000E7F9CFE707F1080300223721204603F030
:105410007FF9002840F0BE80BB68BA4A1A40002AD3
:1054200040F0B88022631146204603F029F9266B2C
:1054300006F00F03022B00F0AF80B34EB34ADFF843
:10544000C492012B18BF1646642504E0013DC4D068
:105450000A20FDF795FF07F10803002237212046B7
:1054600003F056F90028B8D1BB6813EA090FB4D18C
:1054700007F1080332462921204603F021F90028CC
:10548000ABD1BB68002BE1DA5B0003D5236B43F0A3
:105490001003236304F1080300220221204603F0D5
:1054A0002FFA002899D1024604F13803032120463F
:1054B00003F02EF9002890D104F118052B46A26BB9
:1054C0000921204603F01CFA002886D13B1DA26B5F
:1054D0000721204603F01CF9824600287FF47DAFA7
:1054E000236B03F00F03022B00F097806E467E22A1
:1054F00090B07F212846FFF753F90DF108090028E5
:1055000079D10146B546204603F062F8236B03F0DB
:105510000F03022B00F096802846FFF781F9A06266
:105520003B1D4FF400721021204603F0F1F80546B0
:1055300000287FF452AF7B68724E33427FF44DAF48
:10554000236B03F00F03012B40F2B280022B7FF498
:1055500044AFE36A1A79012A00F0A88017D3022A1F
:1055600040F0E2806A4E1979204603F061F807F1B5
:10557000080332460621204603F0CAF800287FF4CB
:105580002CAFBA685F4B1340002B7FF426AF052386
:10559000237128E7022323635E4E642505E0013D65
:1055A0003FF41BAF0A20FDF7EBFE07F1080332467C
:1055B0000121204603F084F800287FF40EAFBB6879
:1055C000002BECDA5B007FF565AF5FE74C48FDF739
:1055D000FFF8E2E6024607F108033721204603F010
:1055E00097F800287FF4F9AEBA68464B1340002BB9
:1055F0007FF4F3AE1BE7CDF800A006234022494616
:10560000204603F0ADF900284ED199F80D3013F083
:10561000020337D11946B54675E7E36A1B687BB1CB
:1056200007F108033C4A0621204603F071F838B917
:10563000BB6834491940B1FA81F1490963E7B546BD
:10564000002160E77E227F212846FFF7A9F8012884
:105650007FF662AFE36A1D68002D3FF4BEAE002303
:1056600000934FF4007208232946204603F078F98E
:1056700000287FF4B2AE2846FFF712F9A0624FE788
:10568000FBF776FE254B0093402206234946204631
:1056900003F066F940B999F8103003F00F030F2BAF
:1056A000CDD0B54601212EE7B54696E61C4E5AE709
:1056B000E36A197900293FF46AAF01297FF48DAEBE
:1056C000204602F0B5FF07F10803A26B3721204600
:1056D00003F01EF800287FF480AEBB6833427FF4ED
:1056E0007CAE07F1080302220621204603F010F8E1
:1056F00000287FF472AEBB6833423FF448AF6CE6DB
:10570000D0F9000808E0FFFD000010C00000108084
:105710000002B7030080FFC00001B903F1FFFF8062
:105720000001B703000800200248034EFDF750F8BF
:10573000E36A18E7B0F900080000B70300000000B2
:105740002DE9F041194D82B02C6801940F46904626
:105750001E460446C0B1BAB1B3B12379052B02D0BD
:105760001348FDF735F8781EA36A304498420FD9E4
:10577000636B43F0800363630120019A2B689A42B4
:1057800011D102B0BDE8F0810948FDF721F8E4E746
:1057900006203346207142463946204603F040FA3F
:1057A00005232371E9E7FBF7E3FD00BF00080020B4
:1057B000F0F90008000000000000000000000000F8
:1057C0002DE9F041194D82B02C6801940F469046A6
:1057D0001E460446C0B1BAB1B3B12379052B02D03D
:1057E0001348FCF7F5FF781EA36A304498420FD99E
:1057F000636B43F0800363630120019A2B689A4234
:1058000011D102B0BDE8F0810948FCF7E1FFE4E7FF
:1058100007203346207142463946204603F040FABD
:1058200005232371E9E7FBF7A3FD00BF0008002073
:1058300000FA000800000000000000000000000066
:1058400070B50E4D82B02B680193044680B1267965
:10585000052E06D00120019A2B689A420CD102B085
:1058600070BD08232371204603F05AFA2671F2E72F
:105870000348FCF7ADFFEAE7FBF77AFD00080020DC
:1058800010FA000800000000000000000000000006
:1058900070B5124D124E2B6882B0044601936B46D0
:1058A000A26B0D21204602F033FF78B9009B3342F2
:1058B0000BD1C3F34323042B08D04FF0010005D3D1
:1058C000072B03D8FDF75CFDE9E70120019A2B685F
:1058D0009A4201D102B070BDFBF74AFD00080020DA
:1058E00008E0FFFD000000000000000000000000D4
:1058F00070B52D4E82B033680193044600284CD019
:10590000202383F31188FDF7FBFFFDF701F82379CE
:10591000022B29D0052B21D104232371FDF718F880
:10592000FEF706F8214B1A689A4204D099699368E9
:105930008A689A4229D3002383F311882046FFF70F
:10594000A7FF0546204602F05BFE02232371019A61
:1059500033689A42284624D102B070BD1448FCF73F
:1059600037FF2379022BD7D1FCF7F2FFFDF7E0FFD9
:105970000E4B1A689A4204D0996993688A689A42D1
:1059800007D3002585F31188E1E70A48FCF720FFDB
:10599000D1E70848FCF71CFFF3E70548FCF718FFC0
:1059A000AEE7FBF7E5FC00BF00080020C8180020A8
:1059B000E0F9000830FA00080000000000000000D4
:1059C00000B5074B83B01A680192019A1B689A428E
:1059D00004D103B05DF804EB02F0BABDFBF7C8FCDC
:1059E000000800200000000000000000000000008F
:1059F00010B50A4B0A4A1968026082B0012401916D
:105A000001991A680471002391424363C0E90A3383
:105A100001D102B010BDFBF7ABFC00BF00080020B5
:105A200040FA000800000000000000000000000034
:105A300030B5084C83B025680195019D2468A542C6
:105A400005D10C3003B0BDE83040FEF7A1BBFBF739
:105A50008FFC00BF000800200000000000000000D4
:105A600010B5094B82B01C680194019C1B689C42D4
:105A700007D10C304FF0FF3302B0BDE81040FEF705
:105A800087BBFBF775FC00BF00080020000000008A
:105A900030B5084C83B025680195019D2468A54266
:105AA00005D1303003B0BDE83040FEF7C9BCFBF78C
:105AB0005FFC00BF000800200000000000000000A4
:105AC00010B5094B82B01C680194019C1B689C4274
:105AD00007D130304FF0FF3302B0BDE81040FEF781
